{
	"contracts/1_Storage.sol": {
		"ERC20": {
			"abi": [
				{
					"inputs": [
						{
							"internalType": "string",
							"name": "_name",
							"type": "string"
						},
						{
							"internalType": "string",
							"name": "_symbol",
							"type": "string"
						},
						{
							"internalType": "uint8",
							"name": "_decimals",
							"type": "uint8"
						},
						{
							"internalType": "uint256",
							"name": "_totalSupply",
							"type": "uint256"
						}
					],
					"stateMutability": "nonpayable",
					"type": "constructor"
				},
				{
					"anonymous": false,
					"inputs": [
						{
							"indexed": false,
							"internalType": "address",
							"name": "from",
							"type": "address"
						},
						{
							"indexed": false,
							"internalType": "address",
							"name": "to",
							"type": "address"
						},
						{
							"indexed": false,
							"internalType": "uint256",
							"name": "value",
							"type": "uint256"
						}
					],
					"name": "Approval",
					"type": "event"
				},
				{
					"anonymous": false,
					"inputs": [
						{
							"indexed": false,
							"internalType": "address",
							"name": "from",
							"type": "address"
						},
						{
							"indexed": false,
							"internalType": "address",
							"name": "to",
							"type": "address"
						},
						{
							"indexed": false,
							"internalType": "uint256",
							"name": "value",
							"type": "uint256"
						}
					],
					"name": "Transfer",
					"type": "event"
				},
				{
					"inputs": [
						{
							"internalType": "address",
							"name": "_to",
							"type": "address"
						},
						{
							"internalType": "uint256",
							"name": "_value",
							"type": "uint256"
						}
					],
					"name": "approve",
					"outputs": [],
					"stateMutability": "nonpayable",
					"type": "function"
				},
				{
					"inputs": [
						{
							"internalType": "address",
							"name": "",
							"type": "address"
						}
					],
					"name": "balances",
					"outputs": [
						{
							"internalType": "uint256",
							"name": "",
							"type": "uint256"
						}
					],
					"stateMutability": "view",
					"type": "function"
				},
				{
					"inputs": [],
					"name": "decimals",
					"outputs": [
						{
							"internalType": "uint8",
							"name": "",
							"type": "uint8"
						}
					],
					"stateMutability": "view",
					"type": "function"
				},
				{
					"inputs": [],
					"name": "name",
					"outputs": [
						{
							"internalType": "string",
							"name": "",
							"type": "string"
						}
					],
					"stateMutability": "view",
					"type": "function"
				},
				{
					"inputs": [],
					"name": "symbol",
					"outputs": [
						{
							"internalType": "string",
							"name": "",
							"type": "string"
						}
					],
					"stateMutability": "view",
					"type": "function"
				},
				{
					"inputs": [],
					"name": "totalSupply",
					"outputs": [
						{
							"internalType": "uint256",
							"name": "",
							"type": "uint256"
						}
					],
					"stateMutability": "view",
					"type": "function"
				},
				{
					"inputs": [
						{
							"internalType": "address",
							"name": "_to",
							"type": "address"
						},
						{
							"internalType": "uint256",
							"name": "_value",
							"type": "uint256"
						}
					],
					"name": "transfer",
					"outputs": [],
					"stateMutability": "nonpayable",
					"type": "function"
				},
				{
					"inputs": [
						{
							"internalType": "address",
							"name": "_from",
							"type": "address"
						},
						{
							"internalType": "address",
							"name": "_to",
							"type": "address"
						},
						{
							"internalType": "uint256",
							"name": "_value",
							"type": "uint256"
						}
					],
					"name": "transferFrom",
					"outputs": [],
					"stateMutability": "nonpayable",
					"type": "function"
				}
			],
			"devdoc": {
				"kind": "dev",
				"methods": {},
				"version": 1
			},
			"evm": {
				"assembly": "    /* \"contracts/1_Storage.sol\":62:1606  contract ERC20 {... */\n  mstore(0x40, 0x80)\n    /* \"contracts/1_Storage.sol\":425:747  constructor(string memory _name, string memory _symbol, uint8 _decimals, uint256 _totalSupply){... */\n  callvalue\n  dup1\n  iszero\n  tag_1\n  jumpi\n  0x00\n  dup1\n  revert\ntag_1:\n  pop\n  mload(0x40)\n  sub(codesize, bytecodeSize)\n  dup1\n  bytecodeSize\n  dup4\n  codecopy\n  dup2\n  dup2\n  add\n  0x40\n  mstore\n  dup2\n  add\n  swap1\n  tag_2\n  swap2\n  swap1\n  tag_3\n  jump\t// in\ntag_2:\n    /* \"contracts/1_Storage.sol\":536:541  _name */\n  dup4\n    /* \"contracts/1_Storage.sol\":529:533  name */\n  0x00\n    /* \"contracts/1_Storage.sol\":529:541  name = _name */\n  swap1\n  dup2\n  tag_6\n  swap2\n  swap1\n  tag_7\n  jump\t// in\ntag_6:\n  pop\n    /* \"contracts/1_Storage.sol\":560:567  _symbol */\n  dup3\n    /* \"contracts/1_Storage.sol\":551:557  symbol */\n  0x01\n    /* \"contracts/1_Storage.sol\":551:567  symbol = _symbol */\n  swap1\n  dup2\n  tag_8\n  swap2\n  swap1\n  tag_7\n  jump\t// in\ntag_8:\n  pop\n    /* \"contracts/1_Storage.sol\":588:597  _decimals */\n  dup2\n    /* \"contracts/1_Storage.sol\":577:585  decimals */\n  0x02\n  0x00\n    /* \"contracts/1_Storage.sol\":577:597  decimals = _decimals */\n  0x0100\n  exp\n  dup2\n  sload\n  dup2\n  0xff\n  mul\n  not\n  and\n  swap1\n  dup4\n  0xff\n  and\n  mul\n  or\n  swap1\n  sstore\n  pop\n    /* \"contracts/1_Storage.sol\":621:633  _totalSupply */\n  dup1\n    /* \"contracts/1_Storage.sol\":607:618  totalSupply */\n  0x03\n    /* \"contracts/1_Storage.sol\":607:633  totalSupply = _totalSupply */\n  dup2\n  swap1\n  sstore\n  pop\n    /* \"contracts/1_Storage.sol\":668:679  totalSupply */\n  sload(0x03)\n    /* \"contracts/1_Storage.sol\":645:653  balances */\n  0x04\n    /* \"contracts/1_Storage.sol\":645:665  balances[msg.sender] */\n  0x00\n    /* \"contracts/1_Storage.sol\":654:664  msg.sender */\n  caller\n    /* \"contracts/1_Storage.sol\":645:665  balances[msg.sender] */\n  0xffffffffffffffffffffffffffffffffffffffff\n  and\n  0xffffffffffffffffffffffffffffffffffffffff\n  and\n  dup2\n  mstore\n  0x20\n  add\n  swap1\n  dup2\n  mstore\n  0x20\n  add\n  0x00\n  keccak256\n    /* \"contracts/1_Storage.sol\":645:679  balances[msg.sender] = totalSupply */\n  dup2\n  swap1\n  sstore\n  pop\n    /* \"contracts/1_Storage.sol\":694:739  Transfer(address(0), msg.sender, totalSupply) */\n  0xddf252ad1be2c89b69c2b068fc378daa952ba7f163c4a11628f55a4df523b3ef\n    /* \"contracts/1_Storage.sol\":711:712  0 */\n  0x00\n    /* \"contracts/1_Storage.sol\":715:725  msg.sender */\n  caller\n    /* \"contracts/1_Storage.sol\":727:738  totalSupply */\n  sload(0x03)\n    /* \"contracts/1_Storage.sol\":694:739  Transfer(address(0), msg.sender, totalSupply) */\n  mload(0x40)\n  tag_9\n  swap4\n  swap3\n  swap2\n  swap1\n  tag_10\n  jump\t// in\ntag_9:\n  mload(0x40)\n  dup1\n  swap2\n  sub\n  swap1\n  log1\n    /* \"contracts/1_Storage.sol\":425:747  constructor(string memory _name, string memory _symbol, uint8 _decimals, uint256 _totalSupply){... */\n  pop\n  pop\n  pop\n  pop\n    /* \"contracts/1_Storage.sol\":62:1606  contract ERC20 {... */\n  jump(tag_11)\n    /* \"#utility.yul\":7:82   */\ntag_12:\n    /* \"#utility.yul\":40:46   */\n  0x00\n    /* \"#utility.yul\":73:75   */\n  0x40\n    /* \"#utility.yul\":67:76   */\n  mload\n    /* \"#utility.yul\":57:76   */\n  swap1\n  pop\n    /* \"#utility.yul\":7:82   */\n  swap1\n  jump\t// out\n    /* \"#utility.yul\":88:205   */\ntag_13:\n    /* \"#utility.yul\":197:198   */\n  0x00\n    /* \"#utility.yul\":194:195   */\n  dup1\n    /* \"#utility.yul\":187:199   */\n  revert\n    /* \"#utility.yul\":211:328   */\ntag_14:\n    /* \"#utility.yul\":320:321   */\n  0x00\n    /* \"#utility.yul\":317:318   */\n  dup1\n    /* \"#utility.yul\":310:322   */\n  revert\n    /* \"#utility.yul\":334:451   */\ntag_15:\n    /* \"#utility.yul\":443:444   */\n  0x00\n    /* \"#utility.yul\":440:441   */\n  dup1\n    /* \"#utility.yul\":433:445   */\n  revert\n    /* \"#utility.yul\":457:574   */\ntag_16:\n    /* \"#utility.yul\":566:567   */\n  0x00\n    /* \"#utility.yul\":563:564   */\n  dup1\n    /* \"#utility.yul\":556:568   */\n  revert\n    /* \"#utility.yul\":580:682   */\ntag_17:\n    /* \"#utility.yul\":621:627   */\n  0x00\n    /* \"#utility.yul\":672:674   */\n  0x1f\n    /* \"#utility.yul\":668:675   */\n  not\n    /* \"#utility.yul\":663:665   */\n  0x1f\n    /* \"#utility.yul\":656:661   */\n  dup4\n    /* \"#utility.yul\":652:666   */\n  add\n    /* \"#utility.yul\":648:676   */\n  and\n    /* \"#utility.yul\":638:676   */\n  swap1\n  pop\n    /* \"#utility.yul\":580:682   */\n  swap2\n  swap1\n  pop\n  jump\t// out\n    /* \"#utility.yul\":688:868   */\ntag_18:\n    /* \"#utility.yul\":736:813   */\n  0x4e487b7100000000000000000000000000000000000000000000000000000000\n    /* \"#utility.yul\":733:734   */\n  0x00\n    /* \"#utility.yul\":726:814   */\n  mstore\n    /* \"#utility.yul\":833:837   */\n  0x41\n    /* \"#utility.yul\":830:831   */\n  0x04\n    /* \"#utility.yul\":823:838   */\n  mstore\n    /* \"#utility.yul\":857:861   */\n  0x24\n    /* \"#utility.yul\":854:855   */\n  0x00\n    /* \"#utility.yul\":847:862   */\n  revert\n    /* \"#utility.yul\":874:1155   */\ntag_19:\n    /* \"#utility.yul\":957:984   */\n  tag_62\n    /* \"#utility.yul\":979:983   */\n  dup3\n    /* \"#utility.yul\":957:984   */\n  tag_17\n  jump\t// in\ntag_62:\n    /* \"#utility.yul\":949:955   */\n  dup2\n    /* \"#utility.yul\":945:985   */\n  add\n    /* \"#utility.yul\":1087:1093   */\n  dup2\n    /* \"#utility.yul\":1075:1085   */\n  dup2\n    /* \"#utility.yul\":1072:1094   */\n  lt\n    /* \"#utility.yul\":1051:1069   */\n  0xffffffffffffffff\n    /* \"#utility.yul\":1039:1049   */\n  dup3\n    /* \"#utility.yul\":1036:1070   */\n  gt\n    /* \"#utility.yul\":1033:1095   */\n  or\n    /* \"#utility.yul\":1030:1118   */\n  iszero\n  tag_63\n  jumpi\n    /* \"#utility.yul\":1098:1116   */\n  tag_64\n  tag_18\n  jump\t// in\ntag_64:\n    /* \"#utility.yul\":1030:1118   */\ntag_63:\n    /* \"#utility.yul\":1138:1148   */\n  dup1\n    /* \"#utility.yul\":1134:1136   */\n  0x40\n    /* \"#utility.yul\":1127:1149   */\n  mstore\n    /* \"#utility.yul\":917:1155   */\n  pop\n    /* \"#utility.yul\":874:1155   */\n  pop\n  pop\n  jump\t// out\n    /* \"#utility.yul\":1161:1290   */\ntag_20:\n    /* \"#utility.yul\":1195:1201   */\n  0x00\n    /* \"#utility.yul\":1222:1242   */\n  tag_66\n  tag_12\n  jump\t// in\ntag_66:\n    /* \"#utility.yul\":1212:1242   */\n  swap1\n  pop\n    /* \"#utility.yul\":1251:1284   */\n  tag_67\n    /* \"#utility.yul\":1279:1283   */\n  dup3\n    /* \"#utility.yul\":1271:1277   */\n  dup3\n    /* \"#utility.yul\":1251:1284   */\n  tag_19\n  jump\t// in\ntag_67:\n    /* \"#utility.yul\":1161:1290   */\n  swap2\n  swap1\n  pop\n  jump\t// out\n    /* \"#utility.yul\":1296:1604   */\ntag_21:\n    /* \"#utility.yul\":1358:1362   */\n  0x00\n    /* \"#utility.yul\":1448:1466   */\n  0xffffffffffffffff\n    /* \"#utility.yul\":1440:1446   */\n  dup3\n    /* \"#utility.yul\":1437:1467   */\n  gt\n    /* \"#utility.yul\":1434:1490   */\n  iszero\n  tag_69\n  jumpi\n    /* \"#utility.yul\":1470:1488   */\n  tag_70\n  tag_18\n  jump\t// in\ntag_70:\n    /* \"#utility.yul\":1434:1490   */\ntag_69:\n    /* \"#utility.yul\":1508:1537   */\n  tag_71\n    /* \"#utility.yul\":1530:1536   */\n  dup3\n    /* \"#utility.yul\":1508:1537   */\n  tag_17\n  jump\t// in\ntag_71:\n    /* \"#utility.yul\":1500:1537   */\n  swap1\n  pop\n    /* \"#utility.yul\":1592:1596   */\n  0x20\n    /* \"#utility.yul\":1586:1590   */\n  dup2\n    /* \"#utility.yul\":1582:1597   */\n  add\n    /* \"#utility.yul\":1574:1597   */\n  swap1\n  pop\n    /* \"#utility.yul\":1296:1604   */\n  swap2\n  swap1\n  pop\n  jump\t// out\n    /* \"#utility.yul\":1610:1749   */\ntag_22:\n    /* \"#utility.yul\":1699:1705   */\n  dup3\n    /* \"#utility.yul\":1694:1697   */\n  dup2\n    /* \"#utility.yul\":1689:1692   */\n  dup4\n    /* \"#utility.yul\":1683:1706   */\n  mcopy\n    /* \"#utility.yul\":1740:1741   */\n  0x00\n    /* \"#utility.yul\":1731:1737   */\n  dup4\n    /* \"#utility.yul\":1726:1729   */\n  dup4\n    /* \"#utility.yul\":1722:1738   */\n  add\n    /* \"#utility.yul\":1715:1742   */\n  mstore\n    /* \"#utility.yul\":1610:1749   */\n  pop\n  pop\n  pop\n  jump\t// out\n    /* \"#utility.yul\":1755:2189   */\ntag_23:\n    /* \"#utility.yul\":1844:1849   */\n  0x00\n    /* \"#utility.yul\":1869:1935   */\n  tag_74\n    /* \"#utility.yul\":1885:1934   */\n  tag_75\n    /* \"#utility.yul\":1927:1933   */\n  dup5\n    /* \"#utility.yul\":1885:1934   */\n  tag_21\n  jump\t// in\ntag_75:\n    /* \"#utility.yul\":1869:1935   */\n  tag_20\n  jump\t// in\ntag_74:\n    /* \"#utility.yul\":1860:1935   */\n  swap1\n  pop\n    /* \"#utility.yul\":1958:1964   */\n  dup3\n    /* \"#utility.yul\":1951:1956   */\n  dup2\n    /* \"#utility.yul\":1944:1965   */\n  mstore\n    /* \"#utility.yul\":1996:2000   */\n  0x20\n    /* \"#utility.yul\":1989:1994   */\n  dup2\n    /* \"#utility.yul\":1985:2001   */\n  add\n    /* \"#utility.yul\":2034:2037   */\n  dup5\n    /* \"#utility.yul\":2025:2031   */\n  dup5\n    /* \"#utility.yul\":2020:2023   */\n  dup5\n    /* \"#utility.yul\":2016:2032   */\n  add\n    /* \"#utility.yul\":2013:2038   */\n  gt\n    /* \"#utility.yul\":2010:2122   */\n  iszero\n  tag_76\n  jumpi\n    /* \"#utility.yul\":2041:2120   */\n  tag_77\n  tag_16\n  jump\t// in\ntag_77:\n    /* \"#utility.yul\":2010:2122   */\ntag_76:\n    /* \"#utility.yul\":2131:2183   */\n  tag_78\n    /* \"#utility.yul\":2176:2182   */\n  dup5\n    /* \"#utility.yul\":2171:2174   */\n  dup3\n    /* \"#utility.yul\":2166:2169   */\n  dup6\n    /* \"#utility.yul\":2131:2183   */\n  tag_22\n  jump\t// in\ntag_78:\n    /* \"#utility.yul\":1850:2189   */\n  pop\n    /* \"#utility.yul\":1755:2189   */\n  swap4\n  swap3\n  pop\n  pop\n  pop\n  jump\t// out\n    /* \"#utility.yul\":2209:2564   */\ntag_24:\n    /* \"#utility.yul\":2276:2281   */\n  0x00\n    /* \"#utility.yul\":2325:2328   */\n  dup3\n    /* \"#utility.yul\":2318:2322   */\n  0x1f\n    /* \"#utility.yul\":2310:2316   */\n  dup4\n    /* \"#utility.yul\":2306:2323   */\n  add\n    /* \"#utility.yul\":2302:2329   */\n  slt\n    /* \"#utility.yul\":2292:2414   */\n  tag_80\n  jumpi\n    /* \"#utility.yul\":2333:2412   */\n  tag_81\n  tag_15\n  jump\t// in\ntag_81:\n    /* \"#utility.yul\":2292:2414   */\ntag_80:\n    /* \"#utility.yul\":2443:2449   */\n  dup2\n    /* \"#utility.yul\":2437:2450   */\n  mload\n    /* \"#utility.yul\":2468:2558   */\n  tag_82\n    /* \"#utility.yul\":2554:2557   */\n  dup5\n    /* \"#utility.yul\":2546:2552   */\n  dup3\n    /* \"#utility.yul\":2539:2543   */\n  0x20\n    /* \"#utility.yul\":2531:2537   */\n  dup7\n    /* \"#utility.yul\":2527:2544   */\n  add\n    /* \"#utility.yul\":2468:2558   */\n  tag_23\n  jump\t// in\ntag_82:\n    /* \"#utility.yul\":2459:2558   */\n  swap2\n  pop\n    /* \"#utility.yul\":2282:2564   */\n  pop\n    /* \"#utility.yul\":2209:2564   */\n  swap3\n  swap2\n  pop\n  pop\n  jump\t// out\n    /* \"#utility.yul\":2570:2656   */\ntag_25:\n    /* \"#utility.yul\":2605:2612   */\n  0x00\n    /* \"#utility.yul\":2645:2649   */\n  0xff\n    /* \"#utility.yul\":2638:2643   */\n  dup3\n    /* \"#utility.yul\":2634:2650   */\n  and\n    /* \"#utility.yul\":2623:2650   */\n  swap1\n  pop\n    /* \"#utility.yul\":2570:2656   */\n  swap2\n  swap1\n  pop\n  jump\t// out\n    /* \"#utility.yul\":2662:2780   */\ntag_26:\n    /* \"#utility.yul\":2733:2755   */\n  tag_85\n    /* \"#utility.yul\":2749:2754   */\n  dup2\n    /* \"#utility.yul\":2733:2755   */\n  tag_25\n  jump\t// in\ntag_85:\n    /* \"#utility.yul\":2726:2731   */\n  dup2\n    /* \"#utility.yul\":2723:2756   */\n  eq\n    /* \"#utility.yul\":2713:2774   */\n  tag_86\n  jumpi\n    /* \"#utility.yul\":2770:2771   */\n  0x00\n    /* \"#utility.yul\":2767:2768   */\n  dup1\n    /* \"#utility.yul\":2760:2772   */\n  revert\n    /* \"#utility.yul\":2713:2774   */\ntag_86:\n    /* \"#utility.yul\":2662:2780   */\n  pop\n  jump\t// out\n    /* \"#utility.yul\":2786:2925   */\ntag_27:\n    /* \"#utility.yul\":2841:2846   */\n  0x00\n    /* \"#utility.yul\":2872:2878   */\n  dup2\n    /* \"#utility.yul\":2866:2879   */\n  mload\n    /* \"#utility.yul\":2857:2879   */\n  swap1\n  pop\n    /* \"#utility.yul\":2888:2919   */\n  tag_88\n    /* \"#utility.yul\":2913:2918   */\n  dup2\n    /* \"#utility.yul\":2888:2919   */\n  tag_26\n  jump\t// in\ntag_88:\n    /* \"#utility.yul\":2786:2925   */\n  swap3\n  swap2\n  pop\n  pop\n  jump\t// out\n    /* \"#utility.yul\":2931:3008   */\ntag_28:\n    /* \"#utility.yul\":2968:2975   */\n  0x00\n    /* \"#utility.yul\":2997:3002   */\n  dup2\n    /* \"#utility.yul\":2986:3002   */\n  swap1\n  pop\n    /* \"#utility.yul\":2931:3008   */\n  swap2\n  swap1\n  pop\n  jump\t// out\n    /* \"#utility.yul\":3014:3136   */\ntag_29:\n    /* \"#utility.yul\":3087:3111   */\n  tag_91\n    /* \"#utility.yul\":3105:3110   */\n  dup2\n    /* \"#utility.yul\":3087:3111   */\n  tag_28\n  jump\t// in\ntag_91:\n    /* \"#utility.yul\":3080:3085   */\n  dup2\n    /* \"#utility.yul\":3077:3112   */\n  eq\n    /* \"#utility.yul\":3067:3130   */\n  tag_92\n  jumpi\n    /* \"#utility.yul\":3126:3127   */\n  0x00\n    /* \"#utility.yul\":3123:3124   */\n  dup1\n    /* \"#utility.yul\":3116:3128   */\n  revert\n    /* \"#utility.yul\":3067:3130   */\ntag_92:\n    /* \"#utility.yul\":3014:3136   */\n  pop\n  jump\t// out\n    /* \"#utility.yul\":3142:3285   */\ntag_30:\n    /* \"#utility.yul\":3199:3204   */\n  0x00\n    /* \"#utility.yul\":3230:3236   */\n  dup2\n    /* \"#utility.yul\":3224:3237   */\n  mload\n    /* \"#utility.yul\":3215:3237   */\n  swap1\n  pop\n    /* \"#utility.yul\":3246:3279   */\n  tag_94\n    /* \"#utility.yul\":3273:3278   */\n  dup2\n    /* \"#utility.yul\":3246:3279   */\n  tag_29\n  jump\t// in\ntag_94:\n    /* \"#utility.yul\":3142:3285   */\n  swap3\n  swap2\n  pop\n  pop\n  jump\t// out\n    /* \"#utility.yul\":3291:4453   */\ntag_3:\n    /* \"#utility.yul\":3406:3412   */\n  0x00\n    /* \"#utility.yul\":3414:3420   */\n  dup1\n    /* \"#utility.yul\":3422:3428   */\n  0x00\n    /* \"#utility.yul\":3430:3436   */\n  dup1\n    /* \"#utility.yul\":3479:3482   */\n  0x80\n    /* \"#utility.yul\":3467:3476   */\n  dup6\n    /* \"#utility.yul\":3458:3465   */\n  dup8\n    /* \"#utility.yul\":3454:3477   */\n  sub\n    /* \"#utility.yul\":3450:3483   */\n  slt\n    /* \"#utility.yul\":3447:3567   */\n  iszero\n  tag_96\n  jumpi\n    /* \"#utility.yul\":3486:3565   */\n  tag_97\n  tag_13\n  jump\t// in\ntag_97:\n    /* \"#utility.yul\":3447:3567   */\ntag_96:\n    /* \"#utility.yul\":3627:3628   */\n  0x00\n    /* \"#utility.yul\":3616:3625   */\n  dup6\n    /* \"#utility.yul\":3612:3629   */\n  add\n    /* \"#utility.yul\":3606:3630   */\n  mload\n    /* \"#utility.yul\":3657:3675   */\n  0xffffffffffffffff\n    /* \"#utility.yul\":3649:3655   */\n  dup2\n    /* \"#utility.yul\":3646:3676   */\n  gt\n    /* \"#utility.yul\":3643:3760   */\n  iszero\n  tag_98\n  jumpi\n    /* \"#utility.yul\":3679:3758   */\n  tag_99\n  tag_14\n  jump\t// in\ntag_99:\n    /* \"#utility.yul\":3643:3760   */\ntag_98:\n    /* \"#utility.yul\":3784:3858   */\n  tag_100\n    /* \"#utility.yul\":3850:3857   */\n  dup8\n    /* \"#utility.yul\":3841:3847   */\n  dup3\n    /* \"#utility.yul\":3830:3839   */\n  dup9\n    /* \"#utility.yul\":3826:3848   */\n  add\n    /* \"#utility.yul\":3784:3858   */\n  tag_24\n  jump\t// in\ntag_100:\n    /* \"#utility.yul\":3774:3858   */\n  swap5\n  pop\n    /* \"#utility.yul\":3577:3868   */\n  pop\n    /* \"#utility.yul\":3928:3930   */\n  0x20\n    /* \"#utility.yul\":3917:3926   */\n  dup6\n    /* \"#utility.yul\":3913:3931   */\n  add\n    /* \"#utility.yul\":3907:3932   */\n  mload\n    /* \"#utility.yul\":3959:3977   */\n  0xffffffffffffffff\n    /* \"#utility.yul\":3951:3957   */\n  dup2\n    /* \"#utility.yul\":3948:3978   */\n  gt\n    /* \"#utility.yul\":3945:4062   */\n  iszero\n  tag_101\n  jumpi\n    /* \"#utility.yul\":3981:4060   */\n  tag_102\n  tag_14\n  jump\t// in\ntag_102:\n    /* \"#utility.yul\":3945:4062   */\ntag_101:\n    /* \"#utility.yul\":4086:4160   */\n  tag_103\n    /* \"#utility.yul\":4152:4159   */\n  dup8\n    /* \"#utility.yul\":4143:4149   */\n  dup3\n    /* \"#utility.yul\":4132:4141   */\n  dup9\n    /* \"#utility.yul\":4128:4150   */\n  add\n    /* \"#utility.yul\":4086:4160   */\n  tag_24\n  jump\t// in\ntag_103:\n    /* \"#utility.yul\":4076:4160   */\n  swap4\n  pop\n    /* \"#utility.yul\":3878:4170   */\n  pop\n    /* \"#utility.yul\":4209:4211   */\n  0x40\n    /* \"#utility.yul\":4235:4297   */\n  tag_104\n    /* \"#utility.yul\":4289:4296   */\n  dup8\n    /* \"#utility.yul\":4280:4286   */\n  dup3\n    /* \"#utility.yul\":4269:4278   */\n  dup9\n    /* \"#utility.yul\":4265:4287   */\n  add\n    /* \"#utility.yul\":4235:4297   */\n  tag_27\n  jump\t// in\ntag_104:\n    /* \"#utility.yul\":4225:4297   */\n  swap3\n  pop\n    /* \"#utility.yul\":4180:4307   */\n  pop\n    /* \"#utility.yul\":4346:4348   */\n  0x60\n    /* \"#utility.yul\":4372:4436   */\n  tag_105\n    /* \"#utility.yul\":4428:4435   */\n  dup8\n    /* \"#utility.yul\":4419:4425   */\n  dup3\n    /* \"#utility.yul\":4408:4417   */\n  dup9\n    /* \"#utility.yul\":4404:4426   */\n  add\n    /* \"#utility.yul\":4372:4436   */\n  tag_30\n  jump\t// in\ntag_105:\n    /* \"#utility.yul\":4362:4436   */\n  swap2\n  pop\n    /* \"#utility.yul\":4317:4446   */\n  pop\n    /* \"#utility.yul\":3291:4453   */\n  swap3\n  swap6\n  swap2\n  swap5\n  pop\n  swap3\n  pop\n  jump\t// out\n    /* \"#utility.yul\":4459:4558   */\ntag_31:\n    /* \"#utility.yul\":4511:4517   */\n  0x00\n    /* \"#utility.yul\":4545:4550   */\n  dup2\n    /* \"#utility.yul\":4539:4551   */\n  mload\n    /* \"#utility.yul\":4529:4551   */\n  swap1\n  pop\n    /* \"#utility.yul\":4459:4558   */\n  swap2\n  swap1\n  pop\n  jump\t// out\n    /* \"#utility.yul\":4564:4744   */\ntag_32:\n    /* \"#utility.yul\":4612:4689   */\n  0x4e487b7100000000000000000000000000000000000000000000000000000000\n    /* \"#utility.yul\":4609:4610   */\n  0x00\n    /* \"#utility.yul\":4602:4690   */\n  mstore\n    /* \"#utility.yul\":4709:4713   */\n  0x22\n    /* \"#utility.yul\":4706:4707   */\n  0x04\n    /* \"#utility.yul\":4699:4714   */\n  mstore\n    /* \"#utility.yul\":4733:4737   */\n  0x24\n    /* \"#utility.yul\":4730:4731   */\n  0x00\n    /* \"#utility.yul\":4723:4738   */\n  revert\n    /* \"#utility.yul\":4750:5070   */\ntag_33:\n    /* \"#utility.yul\":4794:4800   */\n  0x00\n    /* \"#utility.yul\":4831:4832   */\n  0x02\n    /* \"#utility.yul\":4825:4829   */\n  dup3\n    /* \"#utility.yul\":4821:4833   */\n  div\n    /* \"#utility.yul\":4811:4833   */\n  swap1\n  pop\n    /* \"#utility.yul\":4878:4879   */\n  0x01\n    /* \"#utility.yul\":4872:4876   */\n  dup3\n    /* \"#utility.yul\":4868:4880   */\n  and\n    /* \"#utility.yul\":4899:4917   */\n  dup1\n    /* \"#utility.yul\":4889:4970   */\n  tag_109\n  jumpi\n    /* \"#utility.yul\":4955:4959   */\n  0x7f\n    /* \"#utility.yul\":4947:4953   */\n  dup3\n    /* \"#utility.yul\":4943:4960   */\n  and\n    /* \"#utility.yul\":4933:4960   */\n  swap2\n  pop\n    /* \"#utility.yul\":4889:4970   */\ntag_109:\n    /* \"#utility.yul\":5017:5019   */\n  0x20\n    /* \"#utility.yul\":5009:5015   */\n  dup3\n    /* \"#utility.yul\":5006:5020   */\n  lt\n    /* \"#utility.yul\":4986:5004   */\n  dup2\n    /* \"#utility.yul\":4983:5021   */\n  sub\n    /* \"#utility.yul\":4980:5064   */\n  tag_110\n  jumpi\n    /* \"#utility.yul\":5036:5054   */\n  tag_111\n  tag_32\n  jump\t// in\ntag_111:\n    /* \"#utility.yul\":4980:5064   */\ntag_110:\n    /* \"#utility.yul\":4801:5070   */\n  pop\n    /* \"#utility.yul\":4750:5070   */\n  swap2\n  swap1\n  pop\n  jump\t// out\n    /* \"#utility.yul\":5076:5217   */\ntag_34:\n    /* \"#utility.yul\":5125:5129   */\n  0x00\n    /* \"#utility.yul\":5148:5151   */\n  dup2\n    /* \"#utility.yul\":5140:5151   */\n  swap1\n  pop\n    /* \"#utility.yul\":5171:5174   */\n  dup2\n    /* \"#utility.yul\":5168:5169   */\n  0x00\n    /* \"#utility.yul\":5161:5175   */\n  mstore\n    /* \"#utility.yul\":5205:5209   */\n  0x20\n    /* \"#utility.yul\":5202:5203   */\n  0x00\n    /* \"#utility.yul\":5192:5210   */\n  keccak256\n    /* \"#utility.yul\":5184:5210   */\n  swap1\n  pop\n    /* \"#utility.yul\":5076:5217   */\n  swap2\n  swap1\n  pop\n  jump\t// out\n    /* \"#utility.yul\":5223:5316   */\ntag_35:\n    /* \"#utility.yul\":5260:5266   */\n  0x00\n    /* \"#utility.yul\":5307:5309   */\n  0x20\n    /* \"#utility.yul\":5302:5304   */\n  0x1f\n    /* \"#utility.yul\":5295:5300   */\n  dup4\n    /* \"#utility.yul\":5291:5305   */\n  add\n    /* \"#utility.yul\":5287:5310   */\n  div\n    /* \"#utility.yul\":5277:5310   */\n  swap1\n  pop\n    /* \"#utility.yul\":5223:5316   */\n  swap2\n  swap1\n  pop\n  jump\t// out\n    /* \"#utility.yul\":5322:5429   */\ntag_36:\n    /* \"#utility.yul\":5366:5374   */\n  0x00\n    /* \"#utility.yul\":5416:5421   */\n  dup3\n    /* \"#utility.yul\":5410:5414   */\n  dup3\n    /* \"#utility.yul\":5406:5422   */\n  shl\n    /* \"#utility.yul\":5385:5422   */\n  swap1\n  pop\n    /* \"#utility.yul\":5322:5429   */\n  swap3\n  swap2\n  pop\n  pop\n  jump\t// out\n    /* \"#utility.yul\":5435:5828   */\ntag_37:\n    /* \"#utility.yul\":5504:5510   */\n  0x00\n    /* \"#utility.yul\":5554:5555   */\n  0x08\n    /* \"#utility.yul\":5542:5552   */\n  dup4\n    /* \"#utility.yul\":5538:5556   */\n  mul\n    /* \"#utility.yul\":5577:5674   */\n  tag_116\n    /* \"#utility.yul\":5607:5673   */\n  0xffffffffffffffffffffffffffffffffffffffffffffffffffffffffffffffff\n    /* \"#utility.yul\":5596:5605   */\n  dup3\n    /* \"#utility.yul\":5577:5674   */\n  tag_36\n  jump\t// in\ntag_116:\n    /* \"#utility.yul\":5695:5734   */\n  tag_117\n    /* \"#utility.yul\":5725:5733   */\n  dup7\n    /* \"#utility.yul\":5714:5723   */\n  dup4\n    /* \"#utility.yul\":5695:5734   */\n  tag_36\n  jump\t// in\ntag_117:\n    /* \"#utility.yul\":5683:5734   */\n  swap6\n  pop\n    /* \"#utility.yul\":5767:5771   */\n  dup1\n    /* \"#utility.yul\":5763:5772   */\n  not\n    /* \"#utility.yul\":5756:5761   */\n  dup5\n    /* \"#utility.yul\":5752:5773   */\n  and\n    /* \"#utility.yul\":5743:5773   */\n  swap4\n  pop\n    /* \"#utility.yul\":5816:5820   */\n  dup1\n    /* \"#utility.yul\":5806:5814   */\n  dup7\n    /* \"#utility.yul\":5802:5821   */\n  and\n    /* \"#utility.yul\":5795:5800   */\n  dup5\n    /* \"#utility.yul\":5792:5822   */\n  or\n    /* \"#utility.yul\":5782:5822   */\n  swap3\n  pop\n    /* \"#utility.yul\":5511:5828   */\n  pop\n  pop\n    /* \"#utility.yul\":5435:5828   */\n  swap4\n  swap3\n  pop\n  pop\n  pop\n  jump\t// out\n    /* \"#utility.yul\":5834:5894   */\ntag_38:\n    /* \"#utility.yul\":5862:5865   */\n  0x00\n    /* \"#utility.yul\":5883:5888   */\n  dup2\n    /* \"#utility.yul\":5876:5888   */\n  swap1\n  pop\n    /* \"#utility.yul\":5834:5894   */\n  swap2\n  swap1\n  pop\n  jump\t// out\n    /* \"#utility.yul\":5900:6042   */\ntag_39:\n    /* \"#utility.yul\":5950:5959   */\n  0x00\n    /* \"#utility.yul\":5983:6036   */\n  tag_120\n    /* \"#utility.yul\":6001:6035   */\n  tag_121\n    /* \"#utility.yul\":6010:6034   */\n  tag_122\n    /* \"#utility.yul\":6028:6033   */\n  dup5\n    /* \"#utility.yul\":6010:6034   */\n  tag_28\n  jump\t// in\ntag_122:\n    /* \"#utility.yul\":6001:6035   */\n  tag_38\n  jump\t// in\ntag_121:\n    /* \"#utility.yul\":5983:6036   */\n  tag_28\n  jump\t// in\ntag_120:\n    /* \"#utility.yul\":5970:6036   */\n  swap1\n  pop\n    /* \"#utility.yul\":5900:6042   */\n  swap2\n  swap1\n  pop\n  jump\t// out\n    /* \"#utility.yul\":6048:6123   */\ntag_40:\n    /* \"#utility.yul\":6091:6094   */\n  0x00\n    /* \"#utility.yul\":6112:6117   */\n  dup2\n    /* \"#utility.yul\":6105:6117   */\n  swap1\n  pop\n    /* \"#utility.yul\":6048:6123   */\n  swap2\n  swap1\n  pop\n  jump\t// out\n    /* \"#utility.yul\":6129:6398   */\ntag_41:\n    /* \"#utility.yul\":6239:6278   */\n  tag_125\n    /* \"#utility.yul\":6270:6277   */\n  dup4\n    /* \"#utility.yul\":6239:6278   */\n  tag_39\n  jump\t// in\ntag_125:\n    /* \"#utility.yul\":6300:6391   */\n  tag_126\n    /* \"#utility.yul\":6349:6390   */\n  tag_127\n    /* \"#utility.yul\":6373:6389   */\n  dup3\n    /* \"#utility.yul\":6349:6390   */\n  tag_40\n  jump\t// in\ntag_127:\n    /* \"#utility.yul\":6341:6347   */\n  dup5\n    /* \"#utility.yul\":6334:6338   */\n  dup5\n    /* \"#utility.yul\":6328:6339   */\n  sload\n    /* \"#utility.yul\":6300:6391   */\n  tag_37\n  jump\t// in\ntag_126:\n    /* \"#utility.yul\":6294:6298   */\n  dup3\n    /* \"#utility.yul\":6287:6392   */\n  sstore\n    /* \"#utility.yul\":6205:6398   */\n  pop\n    /* \"#utility.yul\":6129:6398   */\n  pop\n  pop\n  pop\n  jump\t// out\n    /* \"#utility.yul\":6404:6477   */\ntag_42:\n    /* \"#utility.yul\":6449:6452   */\n  0x00\n    /* \"#utility.yul\":6404:6477   */\n  swap1\n  jump\t// out\n    /* \"#utility.yul\":6483:6672   */\ntag_43:\n    /* \"#utility.yul\":6560:6592   */\n  tag_130\n  tag_42\n  jump\t// in\ntag_130:\n    /* \"#utility.yul\":6601:6666   */\n  tag_131\n    /* \"#utility.yul\":6659:6665   */\n  dup2\n    /* \"#utility.yul\":6651:6657   */\n  dup5\n    /* \"#utility.yul\":6645:6649   */\n  dup5\n    /* \"#utility.yul\":6601:6666   */\n  tag_41\n  jump\t// in\ntag_131:\n    /* \"#utility.yul\":6536:6672   */\n  pop\n    /* \"#utility.yul\":6483:6672   */\n  pop\n  pop\n  jump\t// out\n    /* \"#utility.yul\":6678:6864   */\ntag_44:\n    /* \"#utility.yul\":6738:6858   */\ntag_133:\n    /* \"#utility.yul\":6755:6758   */\n  dup2\n    /* \"#utility.yul\":6748:6753   */\n  dup2\n    /* \"#utility.yul\":6745:6759   */\n  lt\n    /* \"#utility.yul\":6738:6858   */\n  iszero\n  tag_135\n  jumpi\n    /* \"#utility.yul\":6809:6848   */\n  tag_136\n    /* \"#utility.yul\":6846:6847   */\n  0x00\n    /* \"#utility.yul\":6839:6844   */\n  dup3\n    /* \"#utility.yul\":6809:6848   */\n  tag_43\n  jump\t// in\ntag_136:\n    /* \"#utility.yul\":6782:6783   */\n  0x01\n    /* \"#utility.yul\":6775:6780   */\n  dup2\n    /* \"#utility.yul\":6771:6784   */\n  add\n    /* \"#utility.yul\":6762:6784   */\n  swap1\n  pop\n    /* \"#utility.yul\":6738:6858   */\n  jump(tag_133)\ntag_135:\n    /* \"#utility.yul\":6678:6864   */\n  pop\n  pop\n  jump\t// out\n    /* \"#utility.yul\":6870:7413   */\ntag_45:\n    /* \"#utility.yul\":6971:6973   */\n  0x1f\n    /* \"#utility.yul\":6966:6969   */\n  dup3\n    /* \"#utility.yul\":6963:6974   */\n  gt\n    /* \"#utility.yul\":6960:7406   */\n  iszero\n  tag_138\n  jumpi\n    /* \"#utility.yul\":7005:7043   */\n  tag_139\n    /* \"#utility.yul\":7037:7042   */\n  dup2\n    /* \"#utility.yul\":7005:7043   */\n  tag_34\n  jump\t// in\ntag_139:\n    /* \"#utility.yul\":7089:7118   */\n  tag_140\n    /* \"#utility.yul\":7107:7117   */\n  dup5\n    /* \"#utility.yul\":7089:7118   */\n  tag_35\n  jump\t// in\ntag_140:\n    /* \"#utility.yul\":7079:7087   */\n  dup2\n    /* \"#utility.yul\":7075:7119   */\n  add\n    /* \"#utility.yul\":7272:7274   */\n  0x20\n    /* \"#utility.yul\":7260:7270   */\n  dup6\n    /* \"#utility.yul\":7257:7275   */\n  lt\n    /* \"#utility.yul\":7254:7303   */\n  iszero\n  tag_141\n  jumpi\n    /* \"#utility.yul\":7293:7301   */\n  dup2\n    /* \"#utility.yul\":7278:7301   */\n  swap1\n  pop\n    /* \"#utility.yul\":7254:7303   */\ntag_141:\n    /* \"#utility.yul\":7316:7396   */\n  tag_142\n    /* \"#utility.yul\":7372:7394   */\n  tag_143\n    /* \"#utility.yul\":7390:7393   */\n  dup6\n    /* \"#utility.yul\":7372:7394   */\n  tag_35\n  jump\t// in\ntag_143:\n    /* \"#utility.yul\":7362:7370   */\n  dup4\n    /* \"#utility.yul\":7358:7395   */\n  add\n    /* \"#utility.yul\":7345:7356   */\n  dup3\n    /* \"#utility.yul\":7316:7396   */\n  tag_44\n  jump\t// in\ntag_142:\n    /* \"#utility.yul\":6975:7406   */\n  pop\n  pop\n    /* \"#utility.yul\":6960:7406   */\ntag_138:\n    /* \"#utility.yul\":6870:7413   */\n  pop\n  pop\n  pop\n  jump\t// out\n    /* \"#utility.yul\":7419:7536   */\ntag_46:\n    /* \"#utility.yul\":7473:7481   */\n  0x00\n    /* \"#utility.yul\":7523:7528   */\n  dup3\n    /* \"#utility.yul\":7517:7521   */\n  dup3\n    /* \"#utility.yul\":7513:7529   */\n  shr\n    /* \"#utility.yul\":7492:7529   */\n  swap1\n  pop\n    /* \"#utility.yul\":7419:7536   */\n  swap3\n  swap2\n  pop\n  pop\n  jump\t// out\n    /* \"#utility.yul\":7542:7711   */\ntag_47:\n    /* \"#utility.yul\":7586:7592   */\n  0x00\n    /* \"#utility.yul\":7619:7670   */\n  tag_146\n    /* \"#utility.yul\":7667:7668   */\n  0x00\n    /* \"#utility.yul\":7663:7669   */\n  not\n    /* \"#utility.yul\":7655:7660   */\n  dup5\n    /* \"#utility.yul\":7652:7653   */\n  0x08\n    /* \"#utility.yul\":7648:7661   */\n  mul\n    /* \"#utility.yul\":7619:7670   */\n  tag_46\n  jump\t// in\ntag_146:\n    /* \"#utility.yul\":7615:7671   */\n  not\n    /* \"#utility.yul\":7700:7704   */\n  dup1\n    /* \"#utility.yul\":7694:7698   */\n  dup4\n    /* \"#utility.yul\":7690:7705   */\n  and\n    /* \"#utility.yul\":7680:7705   */\n  swap2\n  pop\n    /* \"#utility.yul\":7593:7711   */\n  pop\n    /* \"#utility.yul\":7542:7711   */\n  swap3\n  swap2\n  pop\n  pop\n  jump\t// out\n    /* \"#utility.yul\":7716:8011   */\ntag_48:\n    /* \"#utility.yul\":7792:7796   */\n  0x00\n    /* \"#utility.yul\":7938:7967   */\n  tag_148\n    /* \"#utility.yul\":7963:7966   */\n  dup4\n    /* \"#utility.yul\":7957:7961   */\n  dup4\n    /* \"#utility.yul\":7938:7967   */\n  tag_47\n  jump\t// in\ntag_148:\n    /* \"#utility.yul\":7930:7967   */\n  swap2\n  pop\n    /* \"#utility.yul\":8000:8003   */\n  dup3\n    /* \"#utility.yul\":7997:7998   */\n  0x02\n    /* \"#utility.yul\":7993:8004   */\n  mul\n    /* \"#utility.yul\":7987:7991   */\n  dup3\n    /* \"#utility.yul\":7984:8005   */\n  or\n    /* \"#utility.yul\":7976:8005   */\n  swap1\n  pop\n    /* \"#utility.yul\":7716:8011   */\n  swap3\n  swap2\n  pop\n  pop\n  jump\t// out\n    /* \"#utility.yul\":8016:9411   */\ntag_7:\n    /* \"#utility.yul\":8133:8170   */\n  tag_150\n    /* \"#utility.yul\":8166:8169   */\n  dup3\n    /* \"#utility.yul\":8133:8170   */\n  tag_31\n  jump\t// in\ntag_150:\n    /* \"#utility.yul\":8235:8253   */\n  0xffffffffffffffff\n    /* \"#utility.yul\":8227:8233   */\n  dup2\n    /* \"#utility.yul\":8224:8254   */\n  gt\n    /* \"#utility.yul\":8221:8277   */\n  iszero\n  tag_151\n  jumpi\n    /* \"#utility.yul\":8257:8275   */\n  tag_152\n  tag_18\n  jump\t// in\ntag_152:\n    /* \"#utility.yul\":8221:8277   */\ntag_151:\n    /* \"#utility.yul\":8301:8339   */\n  tag_153\n    /* \"#utility.yul\":8333:8337   */\n  dup3\n    /* \"#utility.yul\":8327:8338   */\n  sload\n    /* \"#utility.yul\":8301:8339   */\n  tag_33\n  jump\t// in\ntag_153:\n    /* \"#utility.yul\":8386:8453   */\n  tag_154\n    /* \"#utility.yul\":8446:8452   */\n  dup3\n    /* \"#utility.yul\":8438:8444   */\n  dup3\n    /* \"#utility.yul\":8432:8436   */\n  dup6\n    /* \"#utility.yul\":8386:8453   */\n  tag_45\n  jump\t// in\ntag_154:\n    /* \"#utility.yul\":8480:8481   */\n  0x00\n    /* \"#utility.yul\":8504:8508   */\n  0x20\n    /* \"#utility.yul\":8491:8508   */\n  swap1\n  pop\n    /* \"#utility.yul\":8536:8538   */\n  0x1f\n    /* \"#utility.yul\":8528:8534   */\n  dup4\n    /* \"#utility.yul\":8525:8539   */\n  gt\n    /* \"#utility.yul\":8553:8554   */\n  0x01\n    /* \"#utility.yul\":8548:9166   */\n  dup2\n  eq\n  tag_156\n  jumpi\n    /* \"#utility.yul\":9210:9211   */\n  0x00\n    /* \"#utility.yul\":9227:9233   */\n  dup5\n    /* \"#utility.yul\":9224:9301   */\n  iszero\n  tag_157\n  jumpi\n    /* \"#utility.yul\":9276:9285   */\n  dup3\n    /* \"#utility.yul\":9271:9274   */\n  dup8\n    /* \"#utility.yul\":9267:9286   */\n  add\n    /* \"#utility.yul\":9261:9287   */\n  mload\n    /* \"#utility.yul\":9252:9287   */\n  swap1\n  pop\n    /* \"#utility.yul\":9224:9301   */\ntag_157:\n    /* \"#utility.yul\":9327:9394   */\n  tag_158\n    /* \"#utility.yul\":9387:9393   */\n  dup6\n    /* \"#utility.yul\":9380:9385   */\n  dup3\n    /* \"#utility.yul\":9327:9394   */\n  tag_48\n  jump\t// in\ntag_158:\n    /* \"#utility.yul\":9321:9325   */\n  dup7\n    /* \"#utility.yul\":9314:9395   */\n  sstore\n    /* \"#utility.yul\":9183:9405   */\n  pop\n    /* \"#utility.yul\":8518:9405   */\n  jump(tag_155)\n    /* \"#utility.yul\":8548:9166   */\ntag_156:\n    /* \"#utility.yul\":8600:8604   */\n  0x1f\n    /* \"#utility.yul\":8596:8605   */\n  not\n    /* \"#utility.yul\":8588:8594   */\n  dup5\n    /* \"#utility.yul\":8584:8606   */\n  and\n    /* \"#utility.yul\":8634:8671   */\n  tag_159\n    /* \"#utility.yul\":8666:8670   */\n  dup7\n    /* \"#utility.yul\":8634:8671   */\n  tag_34\n  jump\t// in\ntag_159:\n    /* \"#utility.yul\":8693:8694   */\n  0x00\n    /* \"#utility.yul\":8707:8915   */\ntag_160:\n    /* \"#utility.yul\":8721:8728   */\n  dup3\n    /* \"#utility.yul\":8718:8719   */\n  dup2\n    /* \"#utility.yul\":8715:8729   */\n  lt\n    /* \"#utility.yul\":8707:8915   */\n  iszero\n  tag_162\n  jumpi\n    /* \"#utility.yul\":8800:8809   */\n  dup5\n    /* \"#utility.yul\":8795:8798   */\n  dup10\n    /* \"#utility.yul\":8791:8810   */\n  add\n    /* \"#utility.yul\":8785:8811   */\n  mload\n    /* \"#utility.yul\":8777:8783   */\n  dup3\n    /* \"#utility.yul\":8770:8812   */\n  sstore\n    /* \"#utility.yul\":8851:8852   */\n  0x01\n    /* \"#utility.yul\":8843:8849   */\n  dup3\n    /* \"#utility.yul\":8839:8853   */\n  add\n    /* \"#utility.yul\":8829:8853   */\n  swap2\n  pop\n    /* \"#utility.yul\":8898:8900   */\n  0x20\n    /* \"#utility.yul\":8887:8896   */\n  dup6\n    /* \"#utility.yul\":8883:8901   */\n  add\n    /* \"#utility.yul\":8870:8901   */\n  swap5\n  pop\n    /* \"#utility.yul\":8744:8748   */\n  0x20\n    /* \"#utility.yul\":8741:8742   */\n  dup2\n    /* \"#utility.yul\":8737:8749   */\n  add\n    /* \"#utility.yul\":8732:8749   */\n  swap1\n  pop\n    /* \"#utility.yul\":8707:8915   */\n  jump(tag_160)\ntag_162:\n    /* \"#utility.yul\":8943:8949   */\n  dup7\n    /* \"#utility.yul\":8934:8941   */\n  dup4\n    /* \"#utility.yul\":8931:8950   */\n  lt\n    /* \"#utility.yul\":8928:9107   */\n  iszero\n  tag_163\n  jumpi\n    /* \"#utility.yul\":9001:9010   */\n  dup5\n    /* \"#utility.yul\":8996:8999   */\n  dup10\n    /* \"#utility.yul\":8992:9011   */\n  add\n    /* \"#utility.yul\":8986:9012   */\n  mload\n    /* \"#utility.yul\":9044:9092   */\n  tag_164\n    /* \"#utility.yul\":9086:9090   */\n  0x1f\n    /* \"#utility.yul\":9078:9084   */\n  dup10\n    /* \"#utility.yul\":9074:9091   */\n  and\n    /* \"#utility.yul\":9063:9072   */\n  dup3\n    /* \"#utility.yul\":9044:9092   */\n  tag_47\n  jump\t// in\ntag_164:\n    /* \"#utility.yul\":9036:9042   */\n  dup4\n    /* \"#utility.yul\":9029:9093   */\n  sstore\n    /* \"#utility.yul\":8951:9107   */\n  pop\n    /* \"#utility.yul\":8928:9107   */\ntag_163:\n    /* \"#utility.yul\":9153:9154   */\n  0x01\n    /* \"#utility.yul\":9149:9150   */\n  0x02\n    /* \"#utility.yul\":9141:9147   */\n  dup9\n    /* \"#utility.yul\":9137:9151   */\n  mul\n    /* \"#utility.yul\":9133:9155   */\n  add\n    /* \"#utility.yul\":9127:9131   */\n  dup9\n    /* \"#utility.yul\":9120:9156   */\n  sstore\n    /* \"#utility.yul\":8555:9166   */\n  pop\n  pop\n  pop\n    /* \"#utility.yul\":8518:9405   */\ntag_155:\n  pop\n    /* \"#utility.yul\":8108:9411   */\n  pop\n  pop\n  pop\n    /* \"#utility.yul\":8016:9411   */\n  pop\n  pop\n  jump\t// out\n    /* \"#utility.yul\":9417:9543   */\ntag_49:\n    /* \"#utility.yul\":9454:9461   */\n  0x00\n    /* \"#utility.yul\":9494:9536   */\n  0xffffffffffffffffffffffffffffffffffffffff\n    /* \"#utility.yul\":9487:9492   */\n  dup3\n    /* \"#utility.yul\":9483:9537   */\n  and\n    /* \"#utility.yul\":9472:9537   */\n  swap1\n  pop\n    /* \"#utility.yul\":9417:9543   */\n  swap2\n  swap1\n  pop\n  jump\t// out\n    /* \"#utility.yul\":9549:9645   */\ntag_50:\n    /* \"#utility.yul\":9586:9593   */\n  0x00\n    /* \"#utility.yul\":9615:9639   */\n  tag_167\n    /* \"#utility.yul\":9633:9638   */\n  dup3\n    /* \"#utility.yul\":9615:9639   */\n  tag_49\n  jump\t// in\ntag_167:\n    /* \"#utility.yul\":9604:9639   */\n  swap1\n  pop\n    /* \"#utility.yul\":9549:9645   */\n  swap2\n  swap1\n  pop\n  jump\t// out\n    /* \"#utility.yul\":9651:9769   */\ntag_51:\n    /* \"#utility.yul\":9738:9762   */\n  tag_169\n    /* \"#utility.yul\":9756:9761   */\n  dup2\n    /* \"#utility.yul\":9738:9762   */\n  tag_50\n  jump\t// in\ntag_169:\n    /* \"#utility.yul\":9733:9736   */\n  dup3\n    /* \"#utility.yul\":9726:9763   */\n  mstore\n    /* \"#utility.yul\":9651:9769   */\n  pop\n  pop\n  jump\t// out\n    /* \"#utility.yul\":9775:9893   */\ntag_52:\n    /* \"#utility.yul\":9862:9886   */\n  tag_171\n    /* \"#utility.yul\":9880:9885   */\n  dup2\n    /* \"#utility.yul\":9862:9886   */\n  tag_28\n  jump\t// in\ntag_171:\n    /* \"#utility.yul\":9857:9860   */\n  dup3\n    /* \"#utility.yul\":9850:9887   */\n  mstore\n    /* \"#utility.yul\":9775:9893   */\n  pop\n  pop\n  jump\t// out\n    /* \"#utility.yul\":9899:10341   */\ntag_10:\n    /* \"#utility.yul\":10048:10052   */\n  0x00\n    /* \"#utility.yul\":10086:10088   */\n  0x60\n    /* \"#utility.yul\":10075:10084   */\n  dup3\n    /* \"#utility.yul\":10071:10089   */\n  add\n    /* \"#utility.yul\":10063:10089   */\n  swap1\n  pop\n    /* \"#utility.yul\":10099:10170   */\n  tag_173\n    /* \"#utility.yul\":10167:10168   */\n  0x00\n    /* \"#utility.yul\":10156:10165   */\n  dup4\n    /* \"#utility.yul\":10152:10169   */\n  add\n    /* \"#utility.yul\":10143:10149   */\n  dup7\n    /* \"#utility.yul\":10099:10170   */\n  tag_51\n  jump\t// in\ntag_173:\n    /* \"#utility.yul\":10180:10252   */\n  tag_174\n    /* \"#utility.yul\":10248:10250   */\n  0x20\n    /* \"#utility.yul\":10237:10246   */\n  dup4\n    /* \"#utility.yul\":10233:10251   */\n  add\n    /* \"#utility.yul\":10224:10230   */\n  dup6\n    /* \"#utility.yul\":10180:10252   */\n  tag_51\n  jump\t// in\ntag_174:\n    /* \"#utility.yul\":10262:10334   */\n  tag_175\n    /* \"#utility.yul\":10330:10332   */\n  0x40\n    /* \"#utility.yul\":10319:10328   */\n  dup4\n    /* \"#utility.yul\":10315:10333   */\n  add\n    /* \"#utility.yul\":10306:10312   */\n  dup5\n    /* \"#utility.yul\":10262:10334   */\n  tag_52\n  jump\t// in\ntag_175:\n    /* \"#utility.yul\":9899:10341   */\n  swap5\n  swap4\n  pop\n  pop\n  pop\n  pop\n  jump\t// out\n    /* \"contracts/1_Storage.sol\":62:1606  contract ERC20 {... */\ntag_11:\n  dataSize(sub_0)\n  dup1\n  dataOffset(sub_0)\n  0x00\n  codecopy\n  0x00\n  return\nstop\n\nsub_0: assembly {\n        /* \"contracts/1_Storage.sol\":62:1606  contract ERC20 {... */\n      mstore(0x40, 0x80)\n      callvalue\n      dup1\n      iszero\n      tag_1\n      jumpi\n      0x00\n      dup1\n      revert\n    tag_1:\n      pop\n      jumpi(tag_2, lt(calldatasize, 0x04))\n      shr(0xe0, calldataload(0x00))\n      dup1\n      0x27e235e3\n      gt\n      tag_11\n      jumpi\n      dup1\n      0x27e235e3\n      eq\n      tag_7\n      jumpi\n      dup1\n      0x313ce567\n      eq\n      tag_8\n      jumpi\n      dup1\n      0x95d89b41\n      eq\n      tag_9\n      jumpi\n      dup1\n      0xa9059cbb\n      eq\n      tag_10\n      jumpi\n      jump(tag_2)\n    tag_11:\n      dup1\n      0x06fdde03\n      eq\n      tag_3\n      jumpi\n      dup1\n      0x095ea7b3\n      eq\n      tag_4\n      jumpi\n      dup1\n      0x18160ddd\n      eq\n      tag_5\n      jumpi\n      dup1\n      0x23b872dd\n      eq\n      tag_6\n      jumpi\n    tag_2:\n      0x00\n      dup1\n      revert\n        /* \"contracts/1_Storage.sol\":83:101  string public name */\n    tag_3:\n      tag_12\n      tag_13\n      jump\t// in\n    tag_12:\n      mload(0x40)\n      tag_14\n      swap2\n      swap1\n      tag_15\n      jump\t// in\n    tag_14:\n      mload(0x40)\n      dup1\n      swap2\n      sub\n      swap1\n      return\n        /* \"contracts/1_Storage.sol\":1061:1268  function approve(address _to, uint _value) public  {... */\n    tag_4:\n      tag_16\n      0x04\n      dup1\n      calldatasize\n      sub\n      dup2\n      add\n      swap1\n      tag_17\n      swap2\n      swap1\n      tag_18\n      jump\t// in\n    tag_17:\n      tag_19\n      jump\t// in\n    tag_16:\n      stop\n        /* \"contracts/1_Storage.sol\":160:186  uint256 public totalSupply */\n    tag_5:\n      tag_20\n      tag_21\n      jump\t// in\n    tag_20:\n      mload(0x40)\n      tag_22\n      swap2\n      swap1\n      tag_23\n      jump\t// in\n    tag_22:\n      mload(0x40)\n      dup1\n      swap2\n      sub\n      swap1\n      return\n        /* \"contracts/1_Storage.sol\":1274:1603  function transferFrom(address _from, address _to, uint256 _value) public {... */\n    tag_6:\n      tag_24\n      0x04\n      dup1\n      calldatasize\n      sub\n      dup2\n      add\n      swap1\n      tag_25\n      swap2\n      swap1\n      tag_26\n      jump\t// in\n    tag_25:\n      tag_27\n      jump\t// in\n    tag_24:\n      stop\n        /* \"contracts/1_Storage.sol\":193:234  mapping(address=>uint256) public balances */\n    tag_7:\n      tag_28\n      0x04\n      dup1\n      calldatasize\n      sub\n      dup2\n      add\n      swap1\n      tag_29\n      swap2\n      swap1\n      tag_30\n      jump\t// in\n    tag_29:\n      tag_31\n      jump\t// in\n    tag_28:\n      mload(0x40)\n      tag_32\n      swap2\n      swap1\n      tag_23\n      jump\t// in\n    tag_32:\n      mload(0x40)\n      dup1\n      swap2\n      sub\n      swap1\n      return\n        /* \"contracts/1_Storage.sol\":133:154  uint8 public decimals */\n    tag_8:\n      tag_33\n      tag_34\n      jump\t// in\n    tag_33:\n      mload(0x40)\n      tag_35\n      swap2\n      swap1\n      tag_36\n      jump\t// in\n    tag_35:\n      mload(0x40)\n      dup1\n      swap2\n      sub\n      swap1\n      return\n        /* \"contracts/1_Storage.sol\":107:127  string public symbol */\n    tag_9:\n      tag_37\n      tag_38\n      jump\t// in\n    tag_37:\n      mload(0x40)\n      tag_39\n      swap2\n      swap1\n      tag_15\n      jump\t// in\n    tag_39:\n      mload(0x40)\n      dup1\n      swap2\n      sub\n      swap1\n      return\n        /* \"contracts/1_Storage.sol\":753:1055  function transfer(address _to, uint _value) public {... */\n    tag_10:\n      tag_40\n      0x04\n      dup1\n      calldatasize\n      sub\n      dup2\n      add\n      swap1\n      tag_41\n      swap2\n      swap1\n      tag_18\n      jump\t// in\n    tag_41:\n      tag_42\n      jump\t// in\n    tag_40:\n      stop\n        /* \"contracts/1_Storage.sol\":83:101  string public name */\n    tag_13:\n      0x00\n      dup1\n      sload\n      tag_43\n      swap1\n      tag_44\n      jump\t// in\n    tag_43:\n      dup1\n      0x1f\n      add\n      0x20\n      dup1\n      swap2\n      div\n      mul\n      0x20\n      add\n      mload(0x40)\n      swap1\n      dup2\n      add\n      0x40\n      mstore\n      dup1\n      swap3\n      swap2\n      swap1\n      dup2\n      dup2\n      mstore\n      0x20\n      add\n      dup3\n      dup1\n      sload\n      tag_45\n      swap1\n      tag_44\n      jump\t// in\n    tag_45:\n      dup1\n      iszero\n      tag_46\n      jumpi\n      dup1\n      0x1f\n      lt\n      tag_47\n      jumpi\n      0x0100\n      dup1\n      dup4\n      sload\n      div\n      mul\n      dup4\n      mstore\n      swap2\n      0x20\n      add\n      swap2\n      jump(tag_46)\n    tag_47:\n      dup3\n      add\n      swap2\n      swap1\n      0x00\n      mstore\n      keccak256(0x00, 0x20)\n      swap1\n    tag_48:\n      dup2\n      sload\n      dup2\n      mstore\n      swap1\n      0x01\n      add\n      swap1\n      0x20\n      add\n      dup1\n      dup4\n      gt\n      tag_48\n      jumpi\n      dup3\n      swap1\n      sub\n      0x1f\n      and\n      dup3\n      add\n      swap2\n    tag_46:\n      pop\n      pop\n      pop\n      pop\n      pop\n      dup2\n      jump\t// out\n        /* \"contracts/1_Storage.sol\":1061:1268  function approve(address _to, uint _value) public  {... */\n    tag_19:\n        /* \"contracts/1_Storage.sol\":1146:1147  0 */\n      0x00\n        /* \"contracts/1_Storage.sol\":1130:1148  _to !=  address(0) */\n      0xffffffffffffffffffffffffffffffffffffffff\n      and\n        /* \"contracts/1_Storage.sol\":1130:1133  _to */\n      dup3\n        /* \"contracts/1_Storage.sol\":1130:1148  _to !=  address(0) */\n      0xffffffffffffffffffffffffffffffffffffffff\n      and\n      sub\n        /* \"contracts/1_Storage.sol\":1122:1167  require(_to !=  address(0), \"wrong receiver\") */\n      tag_50\n      jumpi\n      mload(0x40)\n      0x08c379a000000000000000000000000000000000000000000000000000000000\n      dup2\n      mstore\n      0x04\n      add\n      tag_51\n      swap1\n      tag_52\n      jump\t// in\n    tag_51:\n      mload(0x40)\n      dup1\n      swap2\n      sub\n      swap1\n      revert\n    tag_50:\n        /* \"contracts/1_Storage.sol\":1207:1213  _value */\n      dup1\n        /* \"contracts/1_Storage.sol\":1177:1187  allownaces */\n      0x05\n        /* \"contracts/1_Storage.sol\":1177:1199  allownaces[msg.sender] */\n      0x00\n        /* \"contracts/1_Storage.sol\":1188:1198  msg.sender */\n      caller\n        /* \"contracts/1_Storage.sol\":1177:1199  allownaces[msg.sender] */\n      0xffffffffffffffffffffffffffffffffffffffff\n      and\n      0xffffffffffffffffffffffffffffffffffffffff\n      and\n      dup2\n      mstore\n      0x20\n      add\n      swap1\n      dup2\n      mstore\n      0x20\n      add\n      0x00\n      keccak256\n        /* \"contracts/1_Storage.sol\":1177:1204  allownaces[msg.sender][_to] */\n      0x00\n        /* \"contracts/1_Storage.sol\":1200:1203  _to */\n      dup5\n        /* \"contracts/1_Storage.sol\":1177:1204  allownaces[msg.sender][_to] */\n      0xffffffffffffffffffffffffffffffffffffffff\n      and\n      0xffffffffffffffffffffffffffffffffffffffff\n      and\n      dup2\n      mstore\n      0x20\n      add\n      swap1\n      dup2\n      mstore\n      0x20\n      add\n      0x00\n      keccak256\n        /* \"contracts/1_Storage.sol\":1177:1213  allownaces[msg.sender][_to] = _value */\n      dup2\n      swap1\n      sstore\n      pop\n        /* \"contracts/1_Storage.sol\":1228:1261  Approval(msg.sender, _to, _value) */\n      0x8c5be1e5ebec7d5bd14f71427d1e84f3dd0314c0f7b2291e5b200ac8c7c3b925\n        /* \"contracts/1_Storage.sol\":1237:1247  msg.sender */\n      caller\n        /* \"contracts/1_Storage.sol\":1249:1252  _to */\n      dup4\n        /* \"contracts/1_Storage.sol\":1254:1260  _value */\n      dup4\n        /* \"contracts/1_Storage.sol\":1228:1261  Approval(msg.sender, _to, _value) */\n      mload(0x40)\n      tag_53\n      swap4\n      swap3\n      swap2\n      swap1\n      tag_54\n      jump\t// in\n    tag_53:\n      mload(0x40)\n      dup1\n      swap2\n      sub\n      swap1\n      log1\n        /* \"contracts/1_Storage.sol\":1061:1268  function approve(address _to, uint _value) public  {... */\n      pop\n      pop\n      jump\t// out\n        /* \"contracts/1_Storage.sol\":160:186  uint256 public totalSupply */\n    tag_21:\n      sload(0x03)\n      dup2\n      jump\t// out\n        /* \"contracts/1_Storage.sol\":1274:1603  function transferFrom(address _from, address _to, uint256 _value) public {... */\n    tag_27:\n        /* \"contracts/1_Storage.sol\":1398:1404  _value */\n      dup1\n        /* \"contracts/1_Storage.sol\":1365:1375  allownaces */\n      0x05\n        /* \"contracts/1_Storage.sol\":1365:1382  allownaces[_from] */\n      0x00\n        /* \"contracts/1_Storage.sol\":1376:1381  _from */\n      dup6\n        /* \"contracts/1_Storage.sol\":1365:1382  allownaces[_from] */\n      0xffffffffffffffffffffffffffffffffffffffff\n      and\n      0xffffffffffffffffffffffffffffffffffffffff\n      and\n      dup2\n      mstore\n      0x20\n      add\n      swap1\n      dup2\n      mstore\n      0x20\n      add\n      0x00\n      keccak256\n        /* \"contracts/1_Storage.sol\":1365:1394  allownaces[_from][msg.sender] */\n      0x00\n        /* \"contracts/1_Storage.sol\":1383:1393  msg.sender */\n      caller\n        /* \"contracts/1_Storage.sol\":1365:1394  allownaces[_from][msg.sender] */\n      0xffffffffffffffffffffffffffffffffffffffff\n      and\n      0xffffffffffffffffffffffffffffffffffffffff\n      and\n      dup2\n      mstore\n      0x20\n      add\n      swap1\n      dup2\n      mstore\n      0x20\n      add\n      0x00\n      keccak256\n      sload\n        /* \"contracts/1_Storage.sol\":1365:1404  allownaces[_from][msg.sender] >= _value */\n      lt\n      iszero\n        /* \"contracts/1_Storage.sol\":1357:1418  require(allownaces[_from][msg.sender] >= _value, \"no access\") */\n      tag_56\n      jumpi\n      mload(0x40)\n      0x08c379a000000000000000000000000000000000000000000000000000000000\n      dup2\n      mstore\n      0x04\n      add\n      tag_57\n      swap1\n      tag_58\n      jump\t// in\n    tag_57:\n      mload(0x40)\n      dup1\n      swap2\n      sub\n      swap1\n      revert\n    tag_56:\n        /* \"contracts/1_Storage.sol\":1454:1460  _value */\n      dup1\n        /* \"contracts/1_Storage.sol\":1436:1444  balances */\n      0x04\n        /* \"contracts/1_Storage.sol\":1436:1451  balances[_from] */\n      0x00\n        /* \"contracts/1_Storage.sol\":1445:1450  _from */\n      dup6\n        /* \"contracts/1_Storage.sol\":1436:1451  balances[_from] */\n      0xffffffffffffffffffffffffffffffffffffffff\n      and\n      0xffffffffffffffffffffffffffffffffffffffff\n      and\n      dup2\n      mstore\n      0x20\n      add\n      swap1\n      dup2\n      mstore\n      0x20\n      add\n      0x00\n      keccak256\n      sload\n        /* \"contracts/1_Storage.sol\":1436:1460  balances[_from] >=_value */\n      lt\n      iszero\n        /* \"contracts/1_Storage.sol\":1428:1481  require(balances[_from] >=_value, \"balance too low\" ) */\n      tag_59\n      jumpi\n      mload(0x40)\n      0x08c379a000000000000000000000000000000000000000000000000000000000\n      dup2\n      mstore\n      0x04\n      add\n      tag_60\n      swap1\n      tag_61\n      jump\t// in\n    tag_60:\n      mload(0x40)\n      dup1\n      swap2\n      sub\n      swap1\n      revert\n    tag_59:\n        /* \"contracts/1_Storage.sol\":1512:1518  _value */\n      dup1\n        /* \"contracts/1_Storage.sol\":1492:1500  balances */\n      0x04\n        /* \"contracts/1_Storage.sol\":1492:1507  balances[_from] */\n      0x00\n        /* \"contracts/1_Storage.sol\":1501:1506  _from */\n      dup6\n        /* \"contracts/1_Storage.sol\":1492:1507  balances[_from] */\n      0xffffffffffffffffffffffffffffffffffffffff\n      and\n      0xffffffffffffffffffffffffffffffffffffffff\n      and\n      dup2\n      mstore\n      0x20\n      add\n      swap1\n      dup2\n      mstore\n      0x20\n      add\n      0x00\n      keccak256\n      0x00\n        /* \"contracts/1_Storage.sol\":1492:1518  balances[_from]  -= _value */\n      dup3\n      dup3\n      sload\n      tag_62\n      swap2\n      swap1\n      tag_63\n      jump\t// in\n    tag_62:\n      swap3\n      pop\n      pop\n      dup2\n      swap1\n      sstore\n      pop\n        /* \"contracts/1_Storage.sol\":1545:1551  _value */\n      dup1\n        /* \"contracts/1_Storage.sol\":1528:1536  balances */\n      0x04\n        /* \"contracts/1_Storage.sol\":1528:1541  balances[_to] */\n      0x00\n        /* \"contracts/1_Storage.sol\":1537:1540  _to */\n      dup5\n        /* \"contracts/1_Storage.sol\":1528:1541  balances[_to] */\n      0xffffffffffffffffffffffffffffffffffffffff\n      and\n      0xffffffffffffffffffffffffffffffffffffffff\n      and\n      dup2\n      mstore\n      0x20\n      add\n      swap1\n      dup2\n      mstore\n      0x20\n      add\n      0x00\n      keccak256\n      0x00\n        /* \"contracts/1_Storage.sol\":1528:1551  balances[_to] += _value */\n      dup3\n      dup3\n      sload\n      tag_64\n      swap2\n      swap1\n      tag_65\n      jump\t// in\n    tag_64:\n      swap3\n      pop\n      pop\n      dup2\n      swap1\n      sstore\n      pop\n        /* \"contracts/1_Storage.sol\":1568:1596  Transfer(_from, _to, _value) */\n      0xddf252ad1be2c89b69c2b068fc378daa952ba7f163c4a11628f55a4df523b3ef\n        /* \"contracts/1_Storage.sol\":1577:1582  _from */\n      dup4\n        /* \"contracts/1_Storage.sol\":1584:1587  _to */\n      dup4\n        /* \"contracts/1_Storage.sol\":1589:1595  _value */\n      dup4\n        /* \"contracts/1_Storage.sol\":1568:1596  Transfer(_from, _to, _value) */\n      mload(0x40)\n      tag_66\n      swap4\n      swap3\n      swap2\n      swap1\n      tag_54\n      jump\t// in\n    tag_66:\n      mload(0x40)\n      dup1\n      swap2\n      sub\n      swap1\n      log1\n        /* \"contracts/1_Storage.sol\":1274:1603  function transferFrom(address _from, address _to, uint256 _value) public {... */\n      pop\n      pop\n      pop\n      jump\t// out\n        /* \"contracts/1_Storage.sol\":193:234  mapping(address=>uint256) public balances */\n    tag_31:\n      mstore(0x20, 0x04)\n      dup1\n      0x00\n      mstore\n      keccak256(0x00, 0x40)\n      0x00\n      swap2\n      pop\n      swap1\n      pop\n      sload\n      dup2\n      jump\t// out\n        /* \"contracts/1_Storage.sol\":133:154  uint8 public decimals */\n    tag_34:\n      0x02\n      0x00\n      swap1\n      sload\n      swap1\n      0x0100\n      exp\n      swap1\n      div\n      0xff\n      and\n      dup2\n      jump\t// out\n        /* \"contracts/1_Storage.sol\":107:127  string public symbol */\n    tag_38:\n      0x01\n      dup1\n      sload\n      tag_67\n      swap1\n      tag_44\n      jump\t// in\n    tag_67:\n      dup1\n      0x1f\n      add\n      0x20\n      dup1\n      swap2\n      div\n      mul\n      0x20\n      add\n      mload(0x40)\n      swap1\n      dup2\n      add\n      0x40\n      mstore\n      dup1\n      swap3\n      swap2\n      swap1\n      dup2\n      dup2\n      mstore\n      0x20\n      add\n      dup3\n      dup1\n      sload\n      tag_68\n      swap1\n      tag_44\n      jump\t// in\n    tag_68:\n      dup1\n      iszero\n      tag_69\n      jumpi\n      dup1\n      0x1f\n      lt\n      tag_70\n      jumpi\n      0x0100\n      dup1\n      dup4\n      sload\n      div\n      mul\n      dup4\n      mstore\n      swap2\n      0x20\n      add\n      swap2\n      jump(tag_69)\n    tag_70:\n      dup3\n      add\n      swap2\n      swap1\n      0x00\n      mstore\n      keccak256(0x00, 0x20)\n      swap1\n    tag_71:\n      dup2\n      sload\n      dup2\n      mstore\n      swap1\n      0x01\n      add\n      swap1\n      0x20\n      add\n      dup1\n      dup4\n      gt\n      tag_71\n      jumpi\n      dup3\n      swap1\n      sub\n      0x1f\n      and\n      dup3\n      add\n      swap2\n    tag_69:\n      pop\n      pop\n      pop\n      pop\n      pop\n      dup2\n      jump\t// out\n        /* \"contracts/1_Storage.sol\":753:1055  function transfer(address _to, uint _value) public {... */\n    tag_42:\n        /* \"contracts/1_Storage.sol\":837:838  0 */\n      0x00\n        /* \"contracts/1_Storage.sol\":822:839  _to != address(0) */\n      0xffffffffffffffffffffffffffffffffffffffff\n      and\n        /* \"contracts/1_Storage.sol\":822:825  _to */\n      dup3\n        /* \"contracts/1_Storage.sol\":822:839  _to != address(0) */\n      0xffffffffffffffffffffffffffffffffffffffff\n      and\n      sub\n        /* \"contracts/1_Storage.sol\":814:858  require(_to != address(0), \"wrong recevier\") */\n      tag_73\n      jumpi\n      mload(0x40)\n      0x08c379a000000000000000000000000000000000000000000000000000000000\n      dup2\n      mstore\n      0x04\n      add\n      tag_74\n      swap1\n      tag_75\n      jump\t// in\n    tag_74:\n      mload(0x40)\n      dup1\n      swap2\n      sub\n      swap1\n      revert\n    tag_73:\n        /* \"contracts/1_Storage.sol\":900:906  _value */\n      dup1\n        /* \"contracts/1_Storage.sol\":876:884  balances */\n      0x04\n        /* \"contracts/1_Storage.sol\":876:896  balances[msg.sender] */\n      0x00\n        /* \"contracts/1_Storage.sol\":885:895  msg.sender */\n      caller\n        /* \"contracts/1_Storage.sol\":876:896  balances[msg.sender] */\n      0xffffffffffffffffffffffffffffffffffffffff\n      and\n      0xffffffffffffffffffffffffffffffffffffffff\n      and\n      dup2\n      mstore\n      0x20\n      add\n      swap1\n      dup2\n      mstore\n      0x20\n      add\n      0x00\n      keccak256\n      sload\n        /* \"contracts/1_Storage.sol\":876:906  balances[msg.sender] >= _value */\n      lt\n      iszero\n        /* \"contracts/1_Storage.sol\":868:926  require(balances[msg.sender] >= _value, \"balance too low\") */\n      tag_76\n      jumpi\n      mload(0x40)\n      0x08c379a000000000000000000000000000000000000000000000000000000000\n      dup2\n      mstore\n      0x04\n      add\n      tag_77\n      swap1\n      tag_61\n      jump\t// in\n    tag_77:\n      mload(0x40)\n      dup1\n      swap2\n      sub\n      swap1\n      revert\n    tag_76:\n        /* \"contracts/1_Storage.sol\":960:966  _value */\n      dup1\n        /* \"contracts/1_Storage.sol\":936:944  balances */\n      0x04\n        /* \"contracts/1_Storage.sol\":936:956  balances[msg.sender] */\n      0x00\n        /* \"contracts/1_Storage.sol\":945:955  msg.sender */\n      caller\n        /* \"contracts/1_Storage.sol\":936:956  balances[msg.sender] */\n      0xffffffffffffffffffffffffffffffffffffffff\n      and\n      0xffffffffffffffffffffffffffffffffffffffff\n      and\n      dup2\n      mstore\n      0x20\n      add\n      swap1\n      dup2\n      mstore\n      0x20\n      add\n      0x00\n      keccak256\n      0x00\n        /* \"contracts/1_Storage.sol\":936:966  balances[msg.sender] -= _value */\n      dup3\n      dup3\n      sload\n      tag_78\n      swap2\n      swap1\n      tag_63\n      jump\t// in\n    tag_78:\n      swap3\n      pop\n      pop\n      dup2\n      swap1\n      sstore\n      pop\n        /* \"contracts/1_Storage.sol\":993:999  _value */\n      dup1\n        /* \"contracts/1_Storage.sol\":976:984  balances */\n      0x04\n        /* \"contracts/1_Storage.sol\":976:989  balances[_to] */\n      0x00\n        /* \"contracts/1_Storage.sol\":985:988  _to */\n      dup5\n        /* \"contracts/1_Storage.sol\":976:989  balances[_to] */\n      0xffffffffffffffffffffffffffffffffffffffff\n      and\n      0xffffffffffffffffffffffffffffffffffffffff\n      and\n      dup2\n      mstore\n      0x20\n      add\n      swap1\n      dup2\n      mstore\n      0x20\n      add\n      0x00\n      keccak256\n      0x00\n        /* \"contracts/1_Storage.sol\":976:999  balances[_to] += _value */\n      dup3\n      dup3\n      sload\n      tag_79\n      swap2\n      swap1\n      tag_65\n      jump\t// in\n    tag_79:\n      swap3\n      pop\n      pop\n      dup2\n      swap1\n      sstore\n      pop\n        /* \"contracts/1_Storage.sol\":1015:1048  Transfer(msg.sender, _to, _value) */\n      0xddf252ad1be2c89b69c2b068fc378daa952ba7f163c4a11628f55a4df523b3ef\n        /* \"contracts/1_Storage.sol\":1024:1034  msg.sender */\n      caller\n        /* \"contracts/1_Storage.sol\":1036:1039  _to */\n      dup4\n        /* \"contracts/1_Storage.sol\":1041:1047  _value */\n      dup4\n        /* \"contracts/1_Storage.sol\":1015:1048  Transfer(msg.sender, _to, _value) */\n      mload(0x40)\n      tag_80\n      swap4\n      swap3\n      swap2\n      swap1\n      tag_54\n      jump\t// in\n    tag_80:\n      mload(0x40)\n      dup1\n      swap2\n      sub\n      swap1\n      log1\n        /* \"contracts/1_Storage.sol\":753:1055  function transfer(address _to, uint _value) public {... */\n      pop\n      pop\n      jump\t// out\n        /* \"#utility.yul\":7:106   */\n    tag_81:\n        /* \"#utility.yul\":59:65   */\n      0x00\n        /* \"#utility.yul\":93:98   */\n      dup2\n        /* \"#utility.yul\":87:99   */\n      mload\n        /* \"#utility.yul\":77:99   */\n      swap1\n      pop\n        /* \"#utility.yul\":7:106   */\n      swap2\n      swap1\n      pop\n      jump\t// out\n        /* \"#utility.yul\":112:281   */\n    tag_82:\n        /* \"#utility.yul\":196:207   */\n      0x00\n        /* \"#utility.yul\":230:236   */\n      dup3\n        /* \"#utility.yul\":225:228   */\n      dup3\n        /* \"#utility.yul\":218:237   */\n      mstore\n        /* \"#utility.yul\":270:274   */\n      0x20\n        /* \"#utility.yul\":265:268   */\n      dup3\n        /* \"#utility.yul\":261:275   */\n      add\n        /* \"#utility.yul\":246:275   */\n      swap1\n      pop\n        /* \"#utility.yul\":112:281   */\n      swap3\n      swap2\n      pop\n      pop\n      jump\t// out\n        /* \"#utility.yul\":287:426   */\n    tag_83:\n        /* \"#utility.yul\":376:382   */\n      dup3\n        /* \"#utility.yul\":371:374   */\n      dup2\n        /* \"#utility.yul\":366:369   */\n      dup4\n        /* \"#utility.yul\":360:383   */\n      mcopy\n        /* \"#utility.yul\":417:418   */\n      0x00\n        /* \"#utility.yul\":408:414   */\n      dup4\n        /* \"#utility.yul\":403:406   */\n      dup4\n        /* \"#utility.yul\":399:415   */\n      add\n        /* \"#utility.yul\":392:419   */\n      mstore\n        /* \"#utility.yul\":287:426   */\n      pop\n      pop\n      pop\n      jump\t// out\n        /* \"#utility.yul\":432:534   */\n    tag_84:\n        /* \"#utility.yul\":473:479   */\n      0x00\n        /* \"#utility.yul\":524:526   */\n      0x1f\n        /* \"#utility.yul\":520:527   */\n      not\n        /* \"#utility.yul\":515:517   */\n      0x1f\n        /* \"#utility.yul\":508:513   */\n      dup4\n        /* \"#utility.yul\":504:518   */\n      add\n        /* \"#utility.yul\":500:528   */\n      and\n        /* \"#utility.yul\":490:528   */\n      swap1\n      pop\n        /* \"#utility.yul\":432:534   */\n      swap2\n      swap1\n      pop\n      jump\t// out\n        /* \"#utility.yul\":540:917   */\n    tag_85:\n        /* \"#utility.yul\":628:631   */\n      0x00\n        /* \"#utility.yul\":656:695   */\n      tag_116\n        /* \"#utility.yul\":689:694   */\n      dup3\n        /* \"#utility.yul\":656:695   */\n      tag_81\n      jump\t// in\n    tag_116:\n        /* \"#utility.yul\":711:782   */\n      tag_117\n        /* \"#utility.yul\":775:781   */\n      dup2\n        /* \"#utility.yul\":770:773   */\n      dup6\n        /* \"#utility.yul\":711:782   */\n      tag_82\n      jump\t// in\n    tag_117:\n        /* \"#utility.yul\":704:782   */\n      swap4\n      pop\n        /* \"#utility.yul\":791:856   */\n      tag_118\n        /* \"#utility.yul\":849:855   */\n      dup2\n        /* \"#utility.yul\":844:847   */\n      dup6\n        /* \"#utility.yul\":837:841   */\n      0x20\n        /* \"#utility.yul\":830:835   */\n      dup7\n        /* \"#utility.yul\":826:842   */\n      add\n        /* \"#utility.yul\":791:856   */\n      tag_83\n      jump\t// in\n    tag_118:\n        /* \"#utility.yul\":881:910   */\n      tag_119\n        /* \"#utility.yul\":903:909   */\n      dup2\n        /* \"#utility.yul\":881:910   */\n      tag_84\n      jump\t// in\n    tag_119:\n        /* \"#utility.yul\":876:879   */\n      dup5\n        /* \"#utility.yul\":872:911   */\n      add\n        /* \"#utility.yul\":865:911   */\n      swap2\n      pop\n        /* \"#utility.yul\":632:917   */\n      pop\n        /* \"#utility.yul\":540:917   */\n      swap3\n      swap2\n      pop\n      pop\n      jump\t// out\n        /* \"#utility.yul\":923:1236   */\n    tag_15:\n        /* \"#utility.yul\":1036:1040   */\n      0x00\n        /* \"#utility.yul\":1074:1076   */\n      0x20\n        /* \"#utility.yul\":1063:1072   */\n      dup3\n        /* \"#utility.yul\":1059:1077   */\n      add\n        /* \"#utility.yul\":1051:1077   */\n      swap1\n      pop\n        /* \"#utility.yul\":1123:1132   */\n      dup2\n        /* \"#utility.yul\":1117:1121   */\n      dup2\n        /* \"#utility.yul\":1113:1133   */\n      sub\n        /* \"#utility.yul\":1109:1110   */\n      0x00\n        /* \"#utility.yul\":1098:1107   */\n      dup4\n        /* \"#utility.yul\":1094:1111   */\n      add\n        /* \"#utility.yul\":1087:1134   */\n      mstore\n        /* \"#utility.yul\":1151:1229   */\n      tag_121\n        /* \"#utility.yul\":1224:1228   */\n      dup2\n        /* \"#utility.yul\":1215:1221   */\n      dup5\n        /* \"#utility.yul\":1151:1229   */\n      tag_85\n      jump\t// in\n    tag_121:\n        /* \"#utility.yul\":1143:1229   */\n      swap1\n      pop\n        /* \"#utility.yul\":923:1236   */\n      swap3\n      swap2\n      pop\n      pop\n      jump\t// out\n        /* \"#utility.yul\":1323:1440   */\n    tag_87:\n        /* \"#utility.yul\":1432:1433   */\n      0x00\n        /* \"#utility.yul\":1429:1430   */\n      dup1\n        /* \"#utility.yul\":1422:1434   */\n      revert\n        /* \"#utility.yul\":1569:1695   */\n    tag_89:\n        /* \"#utility.yul\":1606:1613   */\n      0x00\n        /* \"#utility.yul\":1646:1688   */\n      0xffffffffffffffffffffffffffffffffffffffff\n        /* \"#utility.yul\":1639:1644   */\n      dup3\n        /* \"#utility.yul\":1635:1689   */\n      and\n        /* \"#utility.yul\":1624:1689   */\n      swap1\n      pop\n        /* \"#utility.yul\":1569:1695   */\n      swap2\n      swap1\n      pop\n      jump\t// out\n        /* \"#utility.yul\":1701:1797   */\n    tag_90:\n        /* \"#utility.yul\":1738:1745   */\n      0x00\n        /* \"#utility.yul\":1767:1791   */\n      tag_127\n        /* \"#utility.yul\":1785:1790   */\n      dup3\n        /* \"#utility.yul\":1767:1791   */\n      tag_89\n      jump\t// in\n    tag_127:\n        /* \"#utility.yul\":1756:1791   */\n      swap1\n      pop\n        /* \"#utility.yul\":1701:1797   */\n      swap2\n      swap1\n      pop\n      jump\t// out\n        /* \"#utility.yul\":1803:1925   */\n    tag_91:\n        /* \"#utility.yul\":1876:1900   */\n      tag_129\n        /* \"#utility.yul\":1894:1899   */\n      dup2\n        /* \"#utility.yul\":1876:1900   */\n      tag_90\n      jump\t// in\n    tag_129:\n        /* \"#utility.yul\":1869:1874   */\n      dup2\n        /* \"#utility.yul\":1866:1901   */\n      eq\n        /* \"#utility.yul\":1856:1919   */\n      tag_130\n      jumpi\n        /* \"#utility.yul\":1915:1916   */\n      0x00\n        /* \"#utility.yul\":1912:1913   */\n      dup1\n        /* \"#utility.yul\":1905:1917   */\n      revert\n        /* \"#utility.yul\":1856:1919   */\n    tag_130:\n        /* \"#utility.yul\":1803:1925   */\n      pop\n      jump\t// out\n        /* \"#utility.yul\":1931:2070   */\n    tag_92:\n        /* \"#utility.yul\":1977:1982   */\n      0x00\n        /* \"#utility.yul\":2015:2021   */\n      dup2\n        /* \"#utility.yul\":2002:2022   */\n      calldataload\n        /* \"#utility.yul\":1993:2022   */\n      swap1\n      pop\n        /* \"#utility.yul\":2031:2064   */\n      tag_132\n        /* \"#utility.yul\":2058:2063   */\n      dup2\n        /* \"#utility.yul\":2031:2064   */\n      tag_91\n      jump\t// in\n    tag_132:\n        /* \"#utility.yul\":1931:2070   */\n      swap3\n      swap2\n      pop\n      pop\n      jump\t// out\n        /* \"#utility.yul\":2076:2153   */\n    tag_93:\n        /* \"#utility.yul\":2113:2120   */\n      0x00\n        /* \"#utility.yul\":2142:2147   */\n      dup2\n        /* \"#utility.yul\":2131:2147   */\n      swap1\n      pop\n        /* \"#utility.yul\":2076:2153   */\n      swap2\n      swap1\n      pop\n      jump\t// out\n        /* \"#utility.yul\":2159:2281   */\n    tag_94:\n        /* \"#utility.yul\":2232:2256   */\n      tag_135\n        /* \"#utility.yul\":2250:2255   */\n      dup2\n        /* \"#utility.yul\":2232:2256   */\n      tag_93\n      jump\t// in\n    tag_135:\n        /* \"#utility.yul\":2225:2230   */\n      dup2\n        /* \"#utility.yul\":2222:2257   */\n      eq\n        /* \"#utility.yul\":2212:2275   */\n      tag_136\n      jumpi\n        /* \"#utility.yul\":2271:2272   */\n      0x00\n        /* \"#utility.yul\":2268:2269   */\n      dup1\n        /* \"#utility.yul\":2261:2273   */\n      revert\n        /* \"#utility.yul\":2212:2275   */\n    tag_136:\n        /* \"#utility.yul\":2159:2281   */\n      pop\n      jump\t// out\n        /* \"#utility.yul\":2287:2426   */\n    tag_95:\n        /* \"#utility.yul\":2333:2338   */\n      0x00\n        /* \"#utility.yul\":2371:2377   */\n      dup2\n        /* \"#utility.yul\":2358:2378   */\n      calldataload\n        /* \"#utility.yul\":2349:2378   */\n      swap1\n      pop\n        /* \"#utility.yul\":2387:2420   */\n      tag_138\n        /* \"#utility.yul\":2414:2419   */\n      dup2\n        /* \"#utility.yul\":2387:2420   */\n      tag_94\n      jump\t// in\n    tag_138:\n        /* \"#utility.yul\":2287:2426   */\n      swap3\n      swap2\n      pop\n      pop\n      jump\t// out\n        /* \"#utility.yul\":2432:2906   */\n    tag_18:\n        /* \"#utility.yul\":2500:2506   */\n      0x00\n        /* \"#utility.yul\":2508:2514   */\n      dup1\n        /* \"#utility.yul\":2557:2559   */\n      0x40\n        /* \"#utility.yul\":2545:2554   */\n      dup4\n        /* \"#utility.yul\":2536:2543   */\n      dup6\n        /* \"#utility.yul\":2532:2555   */\n      sub\n        /* \"#utility.yul\":2528:2560   */\n      slt\n        /* \"#utility.yul\":2525:2644   */\n      iszero\n      tag_140\n      jumpi\n        /* \"#utility.yul\":2563:2642   */\n      tag_141\n      tag_87\n      jump\t// in\n    tag_141:\n        /* \"#utility.yul\":2525:2644   */\n    tag_140:\n        /* \"#utility.yul\":2683:2684   */\n      0x00\n        /* \"#utility.yul\":2708:2761   */\n      tag_142\n        /* \"#utility.yul\":2753:2760   */\n      dup6\n        /* \"#utility.yul\":2744:2750   */\n      dup3\n        /* \"#utility.yul\":2733:2742   */\n      dup7\n        /* \"#utility.yul\":2729:2751   */\n      add\n        /* \"#utility.yul\":2708:2761   */\n      tag_92\n      jump\t// in\n    tag_142:\n        /* \"#utility.yul\":2698:2761   */\n      swap3\n      pop\n        /* \"#utility.yul\":2654:2771   */\n      pop\n        /* \"#utility.yul\":2810:2812   */\n      0x20\n        /* \"#utility.yul\":2836:2889   */\n      tag_143\n        /* \"#utility.yul\":2881:2888   */\n      dup6\n        /* \"#utility.yul\":2872:2878   */\n      dup3\n        /* \"#utility.yul\":2861:2870   */\n      dup7\n        /* \"#utility.yul\":2857:2879   */\n      add\n        /* \"#utility.yul\":2836:2889   */\n      tag_95\n      jump\t// in\n    tag_143:\n        /* \"#utility.yul\":2826:2889   */\n      swap2\n      pop\n        /* \"#utility.yul\":2781:2899   */\n      pop\n        /* \"#utility.yul\":2432:2906   */\n      swap3\n      pop\n      swap3\n      swap1\n      pop\n      jump\t// out\n        /* \"#utility.yul\":2912:3030   */\n    tag_96:\n        /* \"#utility.yul\":2999:3023   */\n      tag_145\n        /* \"#utility.yul\":3017:3022   */\n      dup2\n        /* \"#utility.yul\":2999:3023   */\n      tag_93\n      jump\t// in\n    tag_145:\n        /* \"#utility.yul\":2994:2997   */\n      dup3\n        /* \"#utility.yul\":2987:3024   */\n      mstore\n        /* \"#utility.yul\":2912:3030   */\n      pop\n      pop\n      jump\t// out\n        /* \"#utility.yul\":3036:3258   */\n    tag_23:\n        /* \"#utility.yul\":3129:3133   */\n      0x00\n        /* \"#utility.yul\":3167:3169   */\n      0x20\n        /* \"#utility.yul\":3156:3165   */\n      dup3\n        /* \"#utility.yul\":3152:3170   */\n      add\n        /* \"#utility.yul\":3144:3170   */\n      swap1\n      pop\n        /* \"#utility.yul\":3180:3251   */\n      tag_147\n        /* \"#utility.yul\":3248:3249   */\n      0x00\n        /* \"#utility.yul\":3237:3246   */\n      dup4\n        /* \"#utility.yul\":3233:3250   */\n      add\n        /* \"#utility.yul\":3224:3230   */\n      dup5\n        /* \"#utility.yul\":3180:3251   */\n      tag_96\n      jump\t// in\n    tag_147:\n        /* \"#utility.yul\":3036:3258   */\n      swap3\n      swap2\n      pop\n      pop\n      jump\t// out\n        /* \"#utility.yul\":3264:3883   */\n    tag_26:\n        /* \"#utility.yul\":3341:3347   */\n      0x00\n        /* \"#utility.yul\":3349:3355   */\n      dup1\n        /* \"#utility.yul\":3357:3363   */\n      0x00\n        /* \"#utility.yul\":3406:3408   */\n      0x60\n        /* \"#utility.yul\":3394:3403   */\n      dup5\n        /* \"#utility.yul\":3385:3392   */\n      dup7\n        /* \"#utility.yul\":3381:3404   */\n      sub\n        /* \"#utility.yul\":3377:3409   */\n      slt\n        /* \"#utility.yul\":3374:3493   */\n      iszero\n      tag_149\n      jumpi\n        /* \"#utility.yul\":3412:3491   */\n      tag_150\n      tag_87\n      jump\t// in\n    tag_150:\n        /* \"#utility.yul\":3374:3493   */\n    tag_149:\n        /* \"#utility.yul\":3532:3533   */\n      0x00\n        /* \"#utility.yul\":3557:3610   */\n      tag_151\n        /* \"#utility.yul\":3602:3609   */\n      dup7\n        /* \"#utility.yul\":3593:3599   */\n      dup3\n        /* \"#utility.yul\":3582:3591   */\n      dup8\n        /* \"#utility.yul\":3578:3600   */\n      add\n        /* \"#utility.yul\":3557:3610   */\n      tag_92\n      jump\t// in\n    tag_151:\n        /* \"#utility.yul\":3547:3610   */\n      swap4\n      pop\n        /* \"#utility.yul\":3503:3620   */\n      pop\n        /* \"#utility.yul\":3659:3661   */\n      0x20\n        /* \"#utility.yul\":3685:3738   */\n      tag_152\n        /* \"#utility.yul\":3730:3737   */\n      dup7\n        /* \"#utility.yul\":3721:3727   */\n      dup3\n        /* \"#utility.yul\":3710:3719   */\n      dup8\n        /* \"#utility.yul\":3706:3728   */\n      add\n        /* \"#utility.yul\":3685:3738   */\n      tag_92\n      jump\t// in\n    tag_152:\n        /* \"#utility.yul\":3675:3738   */\n      swap3\n      pop\n        /* \"#utility.yul\":3630:3748   */\n      pop\n        /* \"#utility.yul\":3787:3789   */\n      0x40\n        /* \"#utility.yul\":3813:3866   */\n      tag_153\n        /* \"#utility.yul\":3858:3865   */\n      dup7\n        /* \"#utility.yul\":3849:3855   */\n      dup3\n        /* \"#utility.yul\":3838:3847   */\n      dup8\n        /* \"#utility.yul\":3834:3856   */\n      add\n        /* \"#utility.yul\":3813:3866   */\n      tag_95\n      jump\t// in\n    tag_153:\n        /* \"#utility.yul\":3803:3866   */\n      swap2\n      pop\n        /* \"#utility.yul\":3758:3876   */\n      pop\n        /* \"#utility.yul\":3264:3883   */\n      swap3\n      pop\n      swap3\n      pop\n      swap3\n      jump\t// out\n        /* \"#utility.yul\":3889:4218   */\n    tag_30:\n        /* \"#utility.yul\":3948:3954   */\n      0x00\n        /* \"#utility.yul\":3997:3999   */\n      0x20\n        /* \"#utility.yul\":3985:3994   */\n      dup3\n        /* \"#utility.yul\":3976:3983   */\n      dup5\n        /* \"#utility.yul\":3972:3995   */\n      sub\n        /* \"#utility.yul\":3968:4000   */\n      slt\n        /* \"#utility.yul\":3965:4084   */\n      iszero\n      tag_155\n      jumpi\n        /* \"#utility.yul\":4003:4082   */\n      tag_156\n      tag_87\n      jump\t// in\n    tag_156:\n        /* \"#utility.yul\":3965:4084   */\n    tag_155:\n        /* \"#utility.yul\":4123:4124   */\n      0x00\n        /* \"#utility.yul\":4148:4201   */\n      tag_157\n        /* \"#utility.yul\":4193:4200   */\n      dup5\n        /* \"#utility.yul\":4184:4190   */\n      dup3\n        /* \"#utility.yul\":4173:4182   */\n      dup6\n        /* \"#utility.yul\":4169:4191   */\n      add\n        /* \"#utility.yul\":4148:4201   */\n      tag_92\n      jump\t// in\n    tag_157:\n        /* \"#utility.yul\":4138:4201   */\n      swap2\n      pop\n        /* \"#utility.yul\":4094:4211   */\n      pop\n        /* \"#utility.yul\":3889:4218   */\n      swap3\n      swap2\n      pop\n      pop\n      jump\t// out\n        /* \"#utility.yul\":4224:4310   */\n    tag_97:\n        /* \"#utility.yul\":4259:4266   */\n      0x00\n        /* \"#utility.yul\":4299:4303   */\n      0xff\n        /* \"#utility.yul\":4292:4297   */\n      dup3\n        /* \"#utility.yul\":4288:4304   */\n      and\n        /* \"#utility.yul\":4277:4304   */\n      swap1\n      pop\n        /* \"#utility.yul\":4224:4310   */\n      swap2\n      swap1\n      pop\n      jump\t// out\n        /* \"#utility.yul\":4316:4428   */\n    tag_98:\n        /* \"#utility.yul\":4399:4421   */\n      tag_160\n        /* \"#utility.yul\":4415:4420   */\n      dup2\n        /* \"#utility.yul\":4399:4421   */\n      tag_97\n      jump\t// in\n    tag_160:\n        /* \"#utility.yul\":4394:4397   */\n      dup3\n        /* \"#utility.yul\":4387:4422   */\n      mstore\n        /* \"#utility.yul\":4316:4428   */\n      pop\n      pop\n      jump\t// out\n        /* \"#utility.yul\":4434:4648   */\n    tag_36:\n        /* \"#utility.yul\":4523:4527   */\n      0x00\n        /* \"#utility.yul\":4561:4563   */\n      0x20\n        /* \"#utility.yul\":4550:4559   */\n      dup3\n        /* \"#utility.yul\":4546:4564   */\n      add\n        /* \"#utility.yul\":4538:4564   */\n      swap1\n      pop\n        /* \"#utility.yul\":4574:4641   */\n      tag_162\n        /* \"#utility.yul\":4638:4639   */\n      0x00\n        /* \"#utility.yul\":4627:4636   */\n      dup4\n        /* \"#utility.yul\":4623:4640   */\n      add\n        /* \"#utility.yul\":4614:4620   */\n      dup5\n        /* \"#utility.yul\":4574:4641   */\n      tag_98\n      jump\t// in\n    tag_162:\n        /* \"#utility.yul\":4434:4648   */\n      swap3\n      swap2\n      pop\n      pop\n      jump\t// out\n        /* \"#utility.yul\":4654:4834   */\n    tag_99:\n        /* \"#utility.yul\":4702:4779   */\n      0x4e487b7100000000000000000000000000000000000000000000000000000000\n        /* \"#utility.yul\":4699:4700   */\n      0x00\n        /* \"#utility.yul\":4692:4780   */\n      mstore\n        /* \"#utility.yul\":4799:4803   */\n      0x22\n        /* \"#utility.yul\":4796:4797   */\n      0x04\n        /* \"#utility.yul\":4789:4804   */\n      mstore\n        /* \"#utility.yul\":4823:4827   */\n      0x24\n        /* \"#utility.yul\":4820:4821   */\n      0x00\n        /* \"#utility.yul\":4813:4828   */\n      revert\n        /* \"#utility.yul\":4840:5160   */\n    tag_44:\n        /* \"#utility.yul\":4884:4890   */\n      0x00\n        /* \"#utility.yul\":4921:4922   */\n      0x02\n        /* \"#utility.yul\":4915:4919   */\n      dup3\n        /* \"#utility.yul\":4911:4923   */\n      div\n        /* \"#utility.yul\":4901:4923   */\n      swap1\n      pop\n        /* \"#utility.yul\":4968:4969   */\n      0x01\n        /* \"#utility.yul\":4962:4966   */\n      dup3\n        /* \"#utility.yul\":4958:4970   */\n      and\n        /* \"#utility.yul\":4989:5007   */\n      dup1\n        /* \"#utility.yul\":4979:5060   */\n      tag_165\n      jumpi\n        /* \"#utility.yul\":5045:5049   */\n      0x7f\n        /* \"#utility.yul\":5037:5043   */\n      dup3\n        /* \"#utility.yul\":5033:5050   */\n      and\n        /* \"#utility.yul\":5023:5050   */\n      swap2\n      pop\n        /* \"#utility.yul\":4979:5060   */\n    tag_165:\n        /* \"#utility.yul\":5107:5109   */\n      0x20\n        /* \"#utility.yul\":5099:5105   */\n      dup3\n        /* \"#utility.yul\":5096:5110   */\n      lt\n        /* \"#utility.yul\":5076:5094   */\n      dup2\n        /* \"#utility.yul\":5073:5111   */\n      sub\n        /* \"#utility.yul\":5070:5154   */\n      tag_166\n      jumpi\n        /* \"#utility.yul\":5126:5144   */\n      tag_167\n      tag_99\n      jump\t// in\n    tag_167:\n        /* \"#utility.yul\":5070:5154   */\n    tag_166:\n        /* \"#utility.yul\":4891:5160   */\n      pop\n        /* \"#utility.yul\":4840:5160   */\n      swap2\n      swap1\n      pop\n      jump\t// out\n        /* \"#utility.yul\":5166:5330   */\n    tag_100:\n        /* \"#utility.yul\":5306:5322   */\n      0x77726f6e67207265636569766572000000000000000000000000000000000000\n        /* \"#utility.yul\":5302:5303   */\n      0x00\n        /* \"#utility.yul\":5294:5300   */\n      dup3\n        /* \"#utility.yul\":5290:5304   */\n      add\n        /* \"#utility.yul\":5283:5323   */\n      mstore\n        /* \"#utility.yul\":5166:5330   */\n      pop\n      jump\t// out\n        /* \"#utility.yul\":5336:5702   */\n    tag_101:\n        /* \"#utility.yul\":5478:5481   */\n      0x00\n        /* \"#utility.yul\":5499:5566   */\n      tag_170\n        /* \"#utility.yul\":5563:5565   */\n      0x0e\n        /* \"#utility.yul\":5558:5561   */\n      dup4\n        /* \"#utility.yul\":5499:5566   */\n      tag_82\n      jump\t// in\n    tag_170:\n        /* \"#utility.yul\":5492:5566   */\n      swap2\n      pop\n        /* \"#utility.yul\":5575:5668   */\n      tag_171\n        /* \"#utility.yul\":5664:5667   */\n      dup3\n        /* \"#utility.yul\":5575:5668   */\n      tag_100\n      jump\t// in\n    tag_171:\n        /* \"#utility.yul\":5693:5695   */\n      0x20\n        /* \"#utility.yul\":5688:5691   */\n      dup3\n        /* \"#utility.yul\":5684:5696   */\n      add\n        /* \"#utility.yul\":5677:5696   */\n      swap1\n      pop\n        /* \"#utility.yul\":5336:5702   */\n      swap2\n      swap1\n      pop\n      jump\t// out\n        /* \"#utility.yul\":5708:6127   */\n    tag_52:\n        /* \"#utility.yul\":5874:5878   */\n      0x00\n        /* \"#utility.yul\":5912:5914   */\n      0x20\n        /* \"#utility.yul\":5901:5910   */\n      dup3\n        /* \"#utility.yul\":5897:5915   */\n      add\n        /* \"#utility.yul\":5889:5915   */\n      swap1\n      pop\n        /* \"#utility.yul\":5961:5970   */\n      dup2\n        /* \"#utility.yul\":5955:5959   */\n      dup2\n        /* \"#utility.yul\":5951:5971   */\n      sub\n        /* \"#utility.yul\":5947:5948   */\n      0x00\n        /* \"#utility.yul\":5936:5945   */\n      dup4\n        /* \"#utility.yul\":5932:5949   */\n      add\n        /* \"#utility.yul\":5925:5972   */\n      mstore\n        /* \"#utility.yul\":5989:6120   */\n      tag_173\n        /* \"#utility.yul\":6115:6119   */\n      dup2\n        /* \"#utility.yul\":5989:6120   */\n      tag_101\n      jump\t// in\n    tag_173:\n        /* \"#utility.yul\":5981:6120   */\n      swap1\n      pop\n        /* \"#utility.yul\":5708:6127   */\n      swap2\n      swap1\n      pop\n      jump\t// out\n        /* \"#utility.yul\":6133:6251   */\n    tag_102:\n        /* \"#utility.yul\":6220:6244   */\n      tag_175\n        /* \"#utility.yul\":6238:6243   */\n      dup2\n        /* \"#utility.yul\":6220:6244   */\n      tag_90\n      jump\t// in\n    tag_175:\n        /* \"#utility.yul\":6215:6218   */\n      dup3\n        /* \"#utility.yul\":6208:6245   */\n      mstore\n        /* \"#utility.yul\":6133:6251   */\n      pop\n      pop\n      jump\t// out\n        /* \"#utility.yul\":6257:6699   */\n    tag_54:\n        /* \"#utility.yul\":6406:6410   */\n      0x00\n        /* \"#utility.yul\":6444:6446   */\n      0x60\n        /* \"#utility.yul\":6433:6442   */\n      dup3\n        /* \"#utility.yul\":6429:6447   */\n      add\n        /* \"#utility.yul\":6421:6447   */\n      swap1\n      pop\n        /* \"#utility.yul\":6457:6528   */\n      tag_177\n        /* \"#utility.yul\":6525:6526   */\n      0x00\n        /* \"#utility.yul\":6514:6523   */\n      dup4\n        /* \"#utility.yul\":6510:6527   */\n      add\n        /* \"#utility.yul\":6501:6507   */\n      dup7\n        /* \"#utility.yul\":6457:6528   */\n      tag_102\n      jump\t// in\n    tag_177:\n        /* \"#utility.yul\":6538:6610   */\n      tag_178\n        /* \"#utility.yul\":6606:6608   */\n      0x20\n        /* \"#utility.yul\":6595:6604   */\n      dup4\n        /* \"#utility.yul\":6591:6609   */\n      add\n        /* \"#utility.yul\":6582:6588   */\n      dup6\n        /* \"#utility.yul\":6538:6610   */\n      tag_102\n      jump\t// in\n    tag_178:\n        /* \"#utility.yul\":6620:6692   */\n      tag_179\n        /* \"#utility.yul\":6688:6690   */\n      0x40\n        /* \"#utility.yul\":6677:6686   */\n      dup4\n        /* \"#utility.yul\":6673:6691   */\n      add\n        /* \"#utility.yul\":6664:6670   */\n      dup5\n        /* \"#utility.yul\":6620:6692   */\n      tag_96\n      jump\t// in\n    tag_179:\n        /* \"#utility.yul\":6257:6699   */\n      swap5\n      swap4\n      pop\n      pop\n      pop\n      pop\n      jump\t// out\n        /* \"#utility.yul\":6705:6864   */\n    tag_103:\n        /* \"#utility.yul\":6845:6856   */\n      0x6e6f206163636573730000000000000000000000000000000000000000000000\n        /* \"#utility.yul\":6841:6842   */\n      0x00\n        /* \"#utility.yul\":6833:6839   */\n      dup3\n        /* \"#utility.yul\":6829:6843   */\n      add\n        /* \"#utility.yul\":6822:6857   */\n      mstore\n        /* \"#utility.yul\":6705:6864   */\n      pop\n      jump\t// out\n        /* \"#utility.yul\":6870:7235   */\n    tag_104:\n        /* \"#utility.yul\":7012:7015   */\n      0x00\n        /* \"#utility.yul\":7033:7099   */\n      tag_182\n        /* \"#utility.yul\":7097:7098   */\n      0x09\n        /* \"#utility.yul\":7092:7095   */\n      dup4\n        /* \"#utility.yul\":7033:7099   */\n      tag_82\n      jump\t// in\n    tag_182:\n        /* \"#utility.yul\":7026:7099   */\n      swap2\n      pop\n        /* \"#utility.yul\":7108:7201   */\n      tag_183\n        /* \"#utility.yul\":7197:7200   */\n      dup3\n        /* \"#utility.yul\":7108:7201   */\n      tag_103\n      jump\t// in\n    tag_183:\n        /* \"#utility.yul\":7226:7228   */\n      0x20\n        /* \"#utility.yul\":7221:7224   */\n      dup3\n        /* \"#utility.yul\":7217:7229   */\n      add\n        /* \"#utility.yul\":7210:7229   */\n      swap1\n      pop\n        /* \"#utility.yul\":6870:7235   */\n      swap2\n      swap1\n      pop\n      jump\t// out\n        /* \"#utility.yul\":7241:7660   */\n    tag_58:\n        /* \"#utility.yul\":7407:7411   */\n      0x00\n        /* \"#utility.yul\":7445:7447   */\n      0x20\n        /* \"#utility.yul\":7434:7443   */\n      dup3\n        /* \"#utility.yul\":7430:7448   */\n      add\n        /* \"#utility.yul\":7422:7448   */\n      swap1\n      pop\n        /* \"#utility.yul\":7494:7503   */\n      dup2\n        /* \"#utility.yul\":7488:7492   */\n      dup2\n        /* \"#utility.yul\":7484:7504   */\n      sub\n        /* \"#utility.yul\":7480:7481   */\n      0x00\n        /* \"#utility.yul\":7469:7478   */\n      dup4\n        /* \"#utility.yul\":7465:7482   */\n      add\n        /* \"#utility.yul\":7458:7505   */\n      mstore\n        /* \"#utility.yul\":7522:7653   */\n      tag_185\n        /* \"#utility.yul\":7648:7652   */\n      dup2\n        /* \"#utility.yul\":7522:7653   */\n      tag_104\n      jump\t// in\n    tag_185:\n        /* \"#utility.yul\":7514:7653   */\n      swap1\n      pop\n        /* \"#utility.yul\":7241:7660   */\n      swap2\n      swap1\n      pop\n      jump\t// out\n        /* \"#utility.yul\":7666:7831   */\n    tag_105:\n        /* \"#utility.yul\":7806:7823   */\n      0x62616c616e636520746f6f206c6f770000000000000000000000000000000000\n        /* \"#utility.yul\":7802:7803   */\n      0x00\n        /* \"#utility.yul\":7794:7800   */\n      dup3\n        /* \"#utility.yul\":7790:7804   */\n      add\n        /* \"#utility.yul\":7783:7824   */\n      mstore\n        /* \"#utility.yul\":7666:7831   */\n      pop\n      jump\t// out\n        /* \"#utility.yul\":7837:8203   */\n    tag_106:\n        /* \"#utility.yul\":7979:7982   */\n      0x00\n        /* \"#utility.yul\":8000:8067   */\n      tag_188\n        /* \"#utility.yul\":8064:8066   */\n      0x0f\n        /* \"#utility.yul\":8059:8062   */\n      dup4\n        /* \"#utility.yul\":8000:8067   */\n      tag_82\n      jump\t// in\n    tag_188:\n        /* \"#utility.yul\":7993:8067   */\n      swap2\n      pop\n        /* \"#utility.yul\":8076:8169   */\n      tag_189\n        /* \"#utility.yul\":8165:8168   */\n      dup3\n        /* \"#utility.yul\":8076:8169   */\n      tag_105\n      jump\t// in\n    tag_189:\n        /* \"#utility.yul\":8194:8196   */\n      0x20\n        /* \"#utility.yul\":8189:8192   */\n      dup3\n        /* \"#utility.yul\":8185:8197   */\n      add\n        /* \"#utility.yul\":8178:8197   */\n      swap1\n      pop\n        /* \"#utility.yul\":7837:8203   */\n      swap2\n      swap1\n      pop\n      jump\t// out\n        /* \"#utility.yul\":8209:8628   */\n    tag_61:\n        /* \"#utility.yul\":8375:8379   */\n      0x00\n        /* \"#utility.yul\":8413:8415   */\n      0x20\n        /* \"#utility.yul\":8402:8411   */\n      dup3\n        /* \"#utility.yul\":8398:8416   */\n      add\n        /* \"#utility.yul\":8390:8416   */\n      swap1\n      pop\n        /* \"#utility.yul\":8462:8471   */\n      dup2\n        /* \"#utility.yul\":8456:8460   */\n      dup2\n        /* \"#utility.yul\":8452:8472   */\n      sub\n        /* \"#utility.yul\":8448:8449   */\n      0x00\n        /* \"#utility.yul\":8437:8446   */\n      dup4\n        /* \"#utility.yul\":8433:8450   */\n      add\n        /* \"#utility.yul\":8426:8473   */\n      mstore\n        /* \"#utility.yul\":8490:8621   */\n      tag_191\n        /* \"#utility.yul\":8616:8620   */\n      dup2\n        /* \"#utility.yul\":8490:8621   */\n      tag_106\n      jump\t// in\n    tag_191:\n        /* \"#utility.yul\":8482:8621   */\n      swap1\n      pop\n        /* \"#utility.yul\":8209:8628   */\n      swap2\n      swap1\n      pop\n      jump\t// out\n        /* \"#utility.yul\":8634:8814   */\n    tag_107:\n        /* \"#utility.yul\":8682:8759   */\n      0x4e487b7100000000000000000000000000000000000000000000000000000000\n        /* \"#utility.yul\":8679:8680   */\n      0x00\n        /* \"#utility.yul\":8672:8760   */\n      mstore\n        /* \"#utility.yul\":8779:8783   */\n      0x11\n        /* \"#utility.yul\":8776:8777   */\n      0x04\n        /* \"#utility.yul\":8769:8784   */\n      mstore\n        /* \"#utility.yul\":8803:8807   */\n      0x24\n        /* \"#utility.yul\":8800:8801   */\n      0x00\n        /* \"#utility.yul\":8793:8808   */\n      revert\n        /* \"#utility.yul\":8820:9014   */\n    tag_63:\n        /* \"#utility.yul\":8860:8864   */\n      0x00\n        /* \"#utility.yul\":8880:8900   */\n      tag_194\n        /* \"#utility.yul\":8898:8899   */\n      dup3\n        /* \"#utility.yul\":8880:8900   */\n      tag_93\n      jump\t// in\n    tag_194:\n        /* \"#utility.yul\":8875:8900   */\n      swap2\n      pop\n        /* \"#utility.yul\":8914:8934   */\n      tag_195\n        /* \"#utility.yul\":8932:8933   */\n      dup4\n        /* \"#utility.yul\":8914:8934   */\n      tag_93\n      jump\t// in\n    tag_195:\n        /* \"#utility.yul\":8909:8934   */\n      swap3\n      pop\n        /* \"#utility.yul\":8958:8959   */\n      dup3\n        /* \"#utility.yul\":8955:8956   */\n      dup3\n        /* \"#utility.yul\":8951:8960   */\n      sub\n        /* \"#utility.yul\":8943:8960   */\n      swap1\n      pop\n        /* \"#utility.yul\":8982:8983   */\n      dup2\n        /* \"#utility.yul\":8976:8980   */\n      dup2\n        /* \"#utility.yul\":8973:8984   */\n      gt\n        /* \"#utility.yul\":8970:9007   */\n      iszero\n      tag_196\n      jumpi\n        /* \"#utility.yul\":8987:9005   */\n      tag_197\n      tag_107\n      jump\t// in\n    tag_197:\n        /* \"#utility.yul\":8970:9007   */\n    tag_196:\n        /* \"#utility.yul\":8820:9014   */\n      swap3\n      swap2\n      pop\n      pop\n      jump\t// out\n        /* \"#utility.yul\":9020:9211   */\n    tag_65:\n        /* \"#utility.yul\":9060:9063   */\n      0x00\n        /* \"#utility.yul\":9079:9099   */\n      tag_199\n        /* \"#utility.yul\":9097:9098   */\n      dup3\n        /* \"#utility.yul\":9079:9099   */\n      tag_93\n      jump\t// in\n    tag_199:\n        /* \"#utility.yul\":9074:9099   */\n      swap2\n      pop\n        /* \"#utility.yul\":9113:9133   */\n      tag_200\n        /* \"#utility.yul\":9131:9132   */\n      dup4\n        /* \"#utility.yul\":9113:9133   */\n      tag_93\n      jump\t// in\n    tag_200:\n        /* \"#utility.yul\":9108:9133   */\n      swap3\n      pop\n        /* \"#utility.yul\":9156:9157   */\n      dup3\n        /* \"#utility.yul\":9153:9154   */\n      dup3\n        /* \"#utility.yul\":9149:9158   */\n      add\n        /* \"#utility.yul\":9142:9158   */\n      swap1\n      pop\n        /* \"#utility.yul\":9177:9180   */\n      dup1\n        /* \"#utility.yul\":9174:9175   */\n      dup3\n        /* \"#utility.yul\":9171:9181   */\n      gt\n        /* \"#utility.yul\":9168:9204   */\n      iszero\n      tag_201\n      jumpi\n        /* \"#utility.yul\":9184:9202   */\n      tag_202\n      tag_107\n      jump\t// in\n    tag_202:\n        /* \"#utility.yul\":9168:9204   */\n    tag_201:\n        /* \"#utility.yul\":9020:9211   */\n      swap3\n      swap2\n      pop\n      pop\n      jump\t// out\n        /* \"#utility.yul\":9217:9381   */\n    tag_108:\n        /* \"#utility.yul\":9357:9373   */\n      0x77726f6e67207265636576696572000000000000000000000000000000000000\n        /* \"#utility.yul\":9353:9354   */\n      0x00\n        /* \"#utility.yul\":9345:9351   */\n      dup3\n        /* \"#utility.yul\":9341:9355   */\n      add\n        /* \"#utility.yul\":9334:9374   */\n      mstore\n        /* \"#utility.yul\":9217:9381   */\n      pop\n      jump\t// out\n        /* \"#utility.yul\":9387:9753   */\n    tag_109:\n        /* \"#utility.yul\":9529:9532   */\n      0x00\n        /* \"#utility.yul\":9550:9617   */\n      tag_205\n        /* \"#utility.yul\":9614:9616   */\n      0x0e\n        /* \"#utility.yul\":9609:9612   */\n      dup4\n        /* \"#utility.yul\":9550:9617   */\n      tag_82\n      jump\t// in\n    tag_205:\n        /* \"#utility.yul\":9543:9617   */\n      swap2\n      pop\n        /* \"#utility.yul\":9626:9719   */\n      tag_206\n        /* \"#utility.yul\":9715:9718   */\n      dup3\n        /* \"#utility.yul\":9626:9719   */\n      tag_108\n      jump\t// in\n    tag_206:\n        /* \"#utility.yul\":9744:9746   */\n      0x20\n        /* \"#utility.yul\":9739:9742   */\n      dup3\n        /* \"#utility.yul\":9735:9747   */\n      add\n        /* \"#utility.yul\":9728:9747   */\n      swap1\n      pop\n        /* \"#utility.yul\":9387:9753   */\n      swap2\n      swap1\n      pop\n      jump\t// out\n        /* \"#utility.yul\":9759:10178   */\n    tag_75:\n        /* \"#utility.yul\":9925:9929   */\n      0x00\n        /* \"#utility.yul\":9963:9965   */\n      0x20\n        /* \"#utility.yul\":9952:9961   */\n      dup3\n        /* \"#utility.yul\":9948:9966   */\n      add\n        /* \"#utility.yul\":9940:9966   */\n      swap1\n      pop\n        /* \"#utility.yul\":10012:10021   */\n      dup2\n        /* \"#utility.yul\":10006:10010   */\n      dup2\n        /* \"#utility.yul\":10002:10022   */\n      sub\n        /* \"#utility.yul\":9998:9999   */\n      0x00\n        /* \"#utility.yul\":9987:9996   */\n      dup4\n        /* \"#utility.yul\":9983:10000   */\n      add\n        /* \"#utility.yul\":9976:10023   */\n      mstore\n        /* \"#utility.yul\":10040:10171   */\n      tag_208\n        /* \"#utility.yul\":10166:10170   */\n      dup2\n        /* \"#utility.yul\":10040:10171   */\n      tag_109\n      jump\t// in\n    tag_208:\n        /* \"#utility.yul\":10032:10171   */\n      swap1\n      pop\n        /* \"#utility.yul\":9759:10178   */\n      swap2\n      swap1\n      pop\n      jump\t// out\n\n    auxdata: 0xa264697066735822122043f81ba7f5e8540276a0b3c395add63c7ce50e3134431352b272ab179588224964736f6c634300081a0033\n}\n",
				"bytecode": {
					"linkReferences": {},
					"object": "608060405234801561000f575f80fd5b506040516113d83803806113d8833981810160405281019061003191906102b1565b835f908161003f9190610551565b50826001908161004f9190610551565b508160025f6101000a81548160ff021916908360ff1602179055508060038190555060035460045f3373ffffffffffffffffffffffffffffffffffffffff1673ffffffffffffffffffffffffffffffffffffffff1681526020019081526020015f20819055507fddf252ad1be2c89b69c2b068fc378daa952ba7f163c4a11628f55a4df523b3ef5f336003546040516100ea9392919061066e565b60405180910390a1505050506106a3565b5f604051905090565b5f80fd5b5f80fd5b5f80fd5b5f80fd5b5f601f19601f8301169050919050565b7f4e487b71000000000000000000000000000000000000000000000000000000005f52604160045260245ffd5b61015a82610114565b810181811067ffffffffffffffff8211171561017957610178610124565b5b80604052505050565b5f61018b6100fb565b90506101978282610151565b919050565b5f67ffffffffffffffff8211156101b6576101b5610124565b5b6101bf82610114565b9050602081019050919050565b8281835e5f83830152505050565b5f6101ec6101e78461019c565b610182565b90508281526020810184848401111561020857610207610110565b5b6102138482856101cc565b509392505050565b5f82601f83011261022f5761022e61010c565b5b815161023f8482602086016101da565b91505092915050565b5f60ff82169050919050565b61025d81610248565b8114610267575f80fd5b50565b5f8151905061027881610254565b92915050565b5f819050919050565b6102908161027e565b811461029a575f80fd5b50565b5f815190506102ab81610287565b92915050565b5f805f80608085870312156102c9576102c8610104565b5b5f85015167ffffffffffffffff8111156102e6576102e5610108565b5b6102f28782880161021b565b945050602085015167ffffffffffffffff81111561031357610312610108565b5b61031f8782880161021b565b93505060406103308782880161026a565b92505060606103418782880161029d565b91505092959194509250565b5f81519050919050565b7f4e487b71000000000000000000000000000000000000000000000000000000005f52602260045260245ffd5b5f600282049050600182168061039b57607f821691505b6020821081036103ae576103ad610357565b5b50919050565b5f819050815f5260205f209050919050565b5f6020601f8301049050919050565b5f82821b905092915050565b5f600883026104107fffffffffffffffffffffffffffffffffffffffffffffffffffffffffffffffff826103d5565b61041a86836103d5565b95508019841693508086168417925050509392505050565b5f819050919050565b5f61045561045061044b8461027e565b610432565b61027e565b9050919050565b5f819050919050565b61046e8361043b565b61048261047a8261045c565b8484546103e1565b825550505050565b5f90565b61049661048a565b6104a1818484610465565b505050565b5b818110156104c4576104b95f8261048e565b6001810190506104a7565b5050565b601f821115610509576104da816103b4565b6104e3846103c6565b810160208510156104f2578190505b6105066104fe856103c6565b8301826104a6565b50505b505050565b5f82821c905092915050565b5f6105295f198460080261050e565b1980831691505092915050565b5f610541838361051a565b9150826002028217905092915050565b61055a8261034d565b67ffffffffffffffff81111561057357610572610124565b5b61057d8254610384565b6105888282856104c8565b5f60209050601f8311600181146105b9575f84156105a7578287015190505b6105b18582610536565b865550610618565b601f1984166105c7866103b4565b5f5b828110156105ee578489015182556001820191506020850194506020810190506105c9565b8683101561060b5784890151610607601f89168261051a565b8355505b6001600288020188555050505b505050505050565b5f73ffffffffffffffffffffffffffffffffffffffff82169050919050565b5f61064982610620565b9050919050565b6106598161063f565b82525050565b6106688161027e565b82525050565b5f6060820190506106815f830186610650565b61068e6020830185610650565b61069b604083018461065f565b949350505050565b610d28806106b05f395ff3fe608060405234801561000f575f80fd5b5060043610610086575f3560e01c806327e235e31161005957806327e235e3146100fe578063313ce5671461012e57806395d89b411461014c578063a9059cbb1461016a57610086565b806306fdde031461008a578063095ea7b3146100a857806318160ddd146100c457806323b872dd146100e2575b5f80fd5b610092610186565b60405161009f9190610858565b60405180910390f35b6100c260048036038101906100bd9190610909565b610211565b005b6100cc61033b565b6040516100d99190610956565b60405180910390f35b6100fc60048036038101906100f7919061096f565b610341565b005b610118600480360381019061011391906109bf565b610562565b6040516101259190610956565b60405180910390f35b610136610577565b6040516101439190610a05565b60405180910390f35b610154610589565b6040516101619190610858565b60405180910390f35b610184600480360381019061017f9190610909565b610615565b005b5f805461019290610a4b565b80601f01602080910402602001604051908101604052809291908181526020018280546101be90610a4b565b80156102095780601f106101e057610100808354040283529160200191610209565b820191905f5260205f20905b8154815290600101906020018083116101ec57829003601f168201915b505050505081565b5f73ffffffffffffffffffffffffffffffffffffffff168273ffffffffffffffffffffffffffffffffffffffff160361027f576040517f08c379a000000000000000000000000000000000000000000000000000000000815260040161027690610ac5565b60405180910390fd5b8060055f3373ffffffffffffffffffffffffffffffffffffffff1673ffffffffffffffffffffffffffffffffffffffff1681526020019081526020015f205f8473ffffffffffffffffffffffffffffffffffffffff1673ffffffffffffffffffffffffffffffffffffffff1681526020019081526020015f20819055507f8c5be1e5ebec7d5bd14f71427d1e84f3dd0314c0f7b2291e5b200ac8c7c3b92533838360405161032f93929190610af2565b60405180910390a15050565b60035481565b8060055f8573ffffffffffffffffffffffffffffffffffffffff1673ffffffffffffffffffffffffffffffffffffffff1681526020019081526020015f205f3373ffffffffffffffffffffffffffffffffffffffff1673ffffffffffffffffffffffffffffffffffffffff1681526020019081526020015f205410156103fc576040517f08c379a00000000000000000000000000000000000000000000000000000000081526004016103f390610b71565b60405180910390fd5b8060045f8573ffffffffffffffffffffffffffffffffffffffff1673ffffffffffffffffffffffffffffffffffffffff1681526020019081526020015f2054101561047c576040517f08c379a000000000000000000000000000000000000000000000000000000000815260040161047390610bd9565b60405180910390fd5b8060045f8573ffffffffffffffffffffffffffffffffffffffff1673ffffffffffffffffffffffffffffffffffffffff1681526020019081526020015f205f8282546104c89190610c24565b925050819055508060045f8473ffffffffffffffffffffffffffffffffffffffff1673ffffffffffffffffffffffffffffffffffffffff1681526020019081526020015f205f82825461051b9190610c57565b925050819055507fddf252ad1be2c89b69c2b068fc378daa952ba7f163c4a11628f55a4df523b3ef83838360405161055593929190610af2565b60405180910390a1505050565b6004602052805f5260405f205f915090505481565b60025f9054906101000a900460ff1681565b6001805461059690610a4b565b80601f01602080910402602001604051908101604052809291908181526020018280546105c290610a4b565b801561060d5780601f106105e45761010080835404028352916020019161060d565b820191905f5260205f20905b8154815290600101906020018083116105f057829003601f168201915b505050505081565b5f73ffffffffffffffffffffffffffffffffffffffff168273ffffffffffffffffffffffffffffffffffffffff1603610683576040517f08c379a000000000000000000000000000000000000000000000000000000000815260040161067a90610cd4565b60405180910390fd5b8060045f3373ffffffffffffffffffffffffffffffffffffffff1673ffffffffffffffffffffffffffffffffffffffff1681526020019081526020015f20541015610703576040517f08c379a00000000000000000000000000000000000000000000000000000000081526004016106fa90610bd9565b60405180910390fd5b8060045f3373ffffffffffffffffffffffffffffffffffffffff1673ffffffffffffffffffffffffffffffffffffffff1681526020019081526020015f205f82825461074f9190610c24565b925050819055508060045f8473ffffffffffffffffffffffffffffffffffffffff1673ffffffffffffffffffffffffffffffffffffffff1681526020019081526020015f205f8282546107a29190610c57565b925050819055507fddf252ad1be2c89b69c2b068fc378daa952ba7f163c4a11628f55a4df523b3ef3383836040516107dc93929190610af2565b60405180910390a15050565b5f81519050919050565b5f82825260208201905092915050565b8281835e5f83830152505050565b5f601f19601f8301169050919050565b5f61082a826107e8565b61083481856107f2565b9350610844818560208601610802565b61084d81610810565b840191505092915050565b5f6020820190508181035f8301526108708184610820565b905092915050565b5f80fd5b5f73ffffffffffffffffffffffffffffffffffffffff82169050919050565b5f6108a58261087c565b9050919050565b6108b58161089b565b81146108bf575f80fd5b50565b5f813590506108d0816108ac565b92915050565b5f819050919050565b6108e8816108d6565b81146108f2575f80fd5b50565b5f81359050610903816108df565b92915050565b5f806040838503121561091f5761091e610878565b5b5f61092c858286016108c2565b925050602061093d858286016108f5565b9150509250929050565b610950816108d6565b82525050565b5f6020820190506109695f830184610947565b92915050565b5f805f6060848603121561098657610985610878565b5b5f610993868287016108c2565b93505060206109a4868287016108c2565b92505060406109b5868287016108f5565b9150509250925092565b5f602082840312156109d4576109d3610878565b5b5f6109e1848285016108c2565b91505092915050565b5f60ff82169050919050565b6109ff816109ea565b82525050565b5f602082019050610a185f8301846109f6565b92915050565b7f4e487b71000000000000000000000000000000000000000000000000000000005f52602260045260245ffd5b5f6002820490506001821680610a6257607f821691505b602082108103610a7557610a74610a1e565b5b50919050565b7f77726f6e672072656365697665720000000000000000000000000000000000005f82015250565b5f610aaf600e836107f2565b9150610aba82610a7b565b602082019050919050565b5f6020820190508181035f830152610adc81610aa3565b9050919050565b610aec8161089b565b82525050565b5f606082019050610b055f830186610ae3565b610b126020830185610ae3565b610b1f6040830184610947565b949350505050565b7f6e6f2061636365737300000000000000000000000000000000000000000000005f82015250565b5f610b5b6009836107f2565b9150610b6682610b27565b602082019050919050565b5f6020820190508181035f830152610b8881610b4f565b9050919050565b7f62616c616e636520746f6f206c6f7700000000000000000000000000000000005f82015250565b5f610bc3600f836107f2565b9150610bce82610b8f565b602082019050919050565b5f6020820190508181035f830152610bf081610bb7565b9050919050565b7f4e487b71000000000000000000000000000000000000000000000000000000005f52601160045260245ffd5b5f610c2e826108d6565b9150610c39836108d6565b9250828203905081811115610c5157610c50610bf7565b5b92915050565b5f610c61826108d6565b9150610c6c836108d6565b9250828201905080821115610c8457610c83610bf7565b5b92915050565b7f77726f6e672072656365766965720000000000000000000000000000000000005f82015250565b5f610cbe600e836107f2565b9150610cc982610c8a565b602082019050919050565b5f6020820190508181035f830152610ceb81610cb2565b905091905056fea264697066735822122043f81ba7f5e8540276a0b3c395add63c7ce50e3134431352b272ab179588224964736f6c634300081a0033",
					"opcodes": "PUSH1 0x80 PUSH1 0x40 MSTORE CALLVALUE DUP1 ISZERO PUSH2 0xF JUMPI PUSH0 DUP1 REVERT JUMPDEST POP PUSH1 0x40 MLOAD PUSH2 0x13D8 CODESIZE SUB DUP1 PUSH2 0x13D8 DUP4 CODECOPY DUP2 DUP2 ADD PUSH1 0x40 MSTORE DUP2 ADD SWAP1 PUSH2 0x31 SWAP2 SWAP1 PUSH2 0x2B1 JUMP JUMPDEST DUP4 PUSH0 SWAP1 DUP2 PUSH2 0x3F SWAP2 SWAP1 PUSH2 0x551 JUMP JUMPDEST POP DUP3 PUSH1 0x1 SWAP1 DUP2 PUSH2 0x4F SWAP2 SWAP1 PUSH2 0x551 JUMP JUMPDEST POP DUP2 PUSH1 0x2 PUSH0 PUSH2 0x100 EXP DUP2 SLOAD DUP2 PUSH1 0xFF MUL NOT AND SWAP1 DUP4 PUSH1 0xFF AND MUL OR SWAP1 SSTORE POP DUP1 PUSH1 0x3 DUP2 SWAP1 SSTORE POP PUSH1 0x3 SLOAD PUSH1 0x4 PUSH0 CALLER PUSH20 0xFFFFFFFFFFFFFFFFFFFFFFFFFFFFFFFFFFFFFFFF AND PUSH20 0xFFFFFFFFFFFFFFFFFFFFFFFFFFFFFFFFFFFFFFFF AND DUP2 MSTORE PUSH1 0x20 ADD SWAP1 DUP2 MSTORE PUSH1 0x20 ADD PUSH0 KECCAK256 DUP2 SWAP1 SSTORE POP PUSH32 0xDDF252AD1BE2C89B69C2B068FC378DAA952BA7F163C4A11628F55A4DF523B3EF PUSH0 CALLER PUSH1 0x3 SLOAD PUSH1 0x40 MLOAD PUSH2 0xEA SWAP4 SWAP3 SWAP2 SWAP1 PUSH2 0x66E JUMP JUMPDEST PUSH1 0x40 MLOAD DUP1 SWAP2 SUB SWAP1 LOG1 POP POP POP POP PUSH2 0x6A3 JUMP JUMPDEST PUSH0 PUSH1 0x40 MLOAD SWAP1 POP SWAP1 JUMP JUMPDEST PUSH0 DUP1 REVERT JUMPDEST PUSH0 DUP1 REVERT JUMPDEST PUSH0 DUP1 REVERT JUMPDEST PUSH0 DUP1 REVERT JUMPDEST PUSH0 PUSH1 0x1F NOT PUSH1 0x1F DUP4 ADD AND SWAP1 POP SWAP2 SWAP1 POP JUMP JUMPDEST PUSH32 0x4E487B7100000000000000000000000000000000000000000000000000000000 PUSH0 MSTORE PUSH1 0x41 PUSH1 0x4 MSTORE PUSH1 0x24 PUSH0 REVERT JUMPDEST PUSH2 0x15A DUP3 PUSH2 0x114 JUMP JUMPDEST DUP2 ADD DUP2 DUP2 LT PUSH8 0xFFFFFFFFFFFFFFFF DUP3 GT OR ISZERO PUSH2 0x179 JUMPI PUSH2 0x178 PUSH2 0x124 JUMP JUMPDEST JUMPDEST DUP1 PUSH1 0x40 MSTORE POP POP POP JUMP JUMPDEST PUSH0 PUSH2 0x18B PUSH2 0xFB JUMP JUMPDEST SWAP1 POP PUSH2 0x197 DUP3 DUP3 PUSH2 0x151 JUMP JUMPDEST SWAP2 SWAP1 POP JUMP JUMPDEST PUSH0 PUSH8 0xFFFFFFFFFFFFFFFF DUP3 GT ISZERO PUSH2 0x1B6 JUMPI PUSH2 0x1B5 PUSH2 0x124 JUMP JUMPDEST JUMPDEST PUSH2 0x1BF DUP3 PUSH2 0x114 JUMP JUMPDEST SWAP1 POP PUSH1 0x20 DUP2 ADD SWAP1 POP SWAP2 SWAP1 POP JUMP JUMPDEST DUP3 DUP2 DUP4 MCOPY PUSH0 DUP4 DUP4 ADD MSTORE POP POP POP JUMP JUMPDEST PUSH0 PUSH2 0x1EC PUSH2 0x1E7 DUP5 PUSH2 0x19C JUMP JUMPDEST PUSH2 0x182 JUMP JUMPDEST SWAP1 POP DUP3 DUP2 MSTORE PUSH1 0x20 DUP2 ADD DUP5 DUP5 DUP5 ADD GT ISZERO PUSH2 0x208 JUMPI PUSH2 0x207 PUSH2 0x110 JUMP JUMPDEST JUMPDEST PUSH2 0x213 DUP5 DUP3 DUP6 PUSH2 0x1CC JUMP JUMPDEST POP SWAP4 SWAP3 POP POP POP JUMP JUMPDEST PUSH0 DUP3 PUSH1 0x1F DUP4 ADD SLT PUSH2 0x22F JUMPI PUSH2 0x22E PUSH2 0x10C JUMP JUMPDEST JUMPDEST DUP2 MLOAD PUSH2 0x23F DUP5 DUP3 PUSH1 0x20 DUP7 ADD PUSH2 0x1DA JUMP JUMPDEST SWAP2 POP POP SWAP3 SWAP2 POP POP JUMP JUMPDEST PUSH0 PUSH1 0xFF DUP3 AND SWAP1 POP SWAP2 SWAP1 POP JUMP JUMPDEST PUSH2 0x25D DUP2 PUSH2 0x248 JUMP JUMPDEST DUP2 EQ PUSH2 0x267 JUMPI PUSH0 DUP1 REVERT JUMPDEST POP JUMP JUMPDEST PUSH0 DUP2 MLOAD SWAP1 POP PUSH2 0x278 DUP2 PUSH2 0x254 JUMP JUMPDEST SWAP3 SWAP2 POP POP JUMP JUMPDEST PUSH0 DUP2 SWAP1 POP SWAP2 SWAP1 POP JUMP JUMPDEST PUSH2 0x290 DUP2 PUSH2 0x27E JUMP JUMPDEST DUP2 EQ PUSH2 0x29A JUMPI PUSH0 DUP1 REVERT JUMPDEST POP JUMP JUMPDEST PUSH0 DUP2 MLOAD SWAP1 POP PUSH2 0x2AB DUP2 PUSH2 0x287 JUMP JUMPDEST SWAP3 SWAP2 POP POP JUMP JUMPDEST PUSH0 DUP1 PUSH0 DUP1 PUSH1 0x80 DUP6 DUP8 SUB SLT ISZERO PUSH2 0x2C9 JUMPI PUSH2 0x2C8 PUSH2 0x104 JUMP JUMPDEST JUMPDEST PUSH0 DUP6 ADD MLOAD PUSH8 0xFFFFFFFFFFFFFFFF DUP2 GT ISZERO PUSH2 0x2E6 JUMPI PUSH2 0x2E5 PUSH2 0x108 JUMP JUMPDEST JUMPDEST PUSH2 0x2F2 DUP8 DUP3 DUP9 ADD PUSH2 0x21B JUMP JUMPDEST SWAP5 POP POP PUSH1 0x20 DUP6 ADD MLOAD PUSH8 0xFFFFFFFFFFFFFFFF DUP2 GT ISZERO PUSH2 0x313 JUMPI PUSH2 0x312 PUSH2 0x108 JUMP JUMPDEST JUMPDEST PUSH2 0x31F DUP8 DUP3 DUP9 ADD PUSH2 0x21B JUMP JUMPDEST SWAP4 POP POP PUSH1 0x40 PUSH2 0x330 DUP8 DUP3 DUP9 ADD PUSH2 0x26A JUMP JUMPDEST SWAP3 POP POP PUSH1 0x60 PUSH2 0x341 DUP8 DUP3 DUP9 ADD PUSH2 0x29D JUMP JUMPDEST SWAP2 POP POP SWAP3 SWAP6 SWAP2 SWAP5 POP SWAP3 POP JUMP JUMPDEST PUSH0 DUP2 MLOAD SWAP1 POP SWAP2 SWAP1 POP JUMP JUMPDEST PUSH32 0x4E487B7100000000000000000000000000000000000000000000000000000000 PUSH0 MSTORE PUSH1 0x22 PUSH1 0x4 MSTORE PUSH1 0x24 PUSH0 REVERT JUMPDEST PUSH0 PUSH1 0x2 DUP3 DIV SWAP1 POP PUSH1 0x1 DUP3 AND DUP1 PUSH2 0x39B JUMPI PUSH1 0x7F DUP3 AND SWAP2 POP JUMPDEST PUSH1 0x20 DUP3 LT DUP2 SUB PUSH2 0x3AE JUMPI PUSH2 0x3AD PUSH2 0x357 JUMP JUMPDEST JUMPDEST POP SWAP2 SWAP1 POP JUMP JUMPDEST PUSH0 DUP2 SWAP1 POP DUP2 PUSH0 MSTORE PUSH1 0x20 PUSH0 KECCAK256 SWAP1 POP SWAP2 SWAP1 POP JUMP JUMPDEST PUSH0 PUSH1 0x20 PUSH1 0x1F DUP4 ADD DIV SWAP1 POP SWAP2 SWAP1 POP JUMP JUMPDEST PUSH0 DUP3 DUP3 SHL SWAP1 POP SWAP3 SWAP2 POP POP JUMP JUMPDEST PUSH0 PUSH1 0x8 DUP4 MUL PUSH2 0x410 PUSH32 0xFFFFFFFFFFFFFFFFFFFFFFFFFFFFFFFFFFFFFFFFFFFFFFFFFFFFFFFFFFFFFFFF DUP3 PUSH2 0x3D5 JUMP JUMPDEST PUSH2 0x41A DUP7 DUP4 PUSH2 0x3D5 JUMP JUMPDEST SWAP6 POP DUP1 NOT DUP5 AND SWAP4 POP DUP1 DUP7 AND DUP5 OR SWAP3 POP POP POP SWAP4 SWAP3 POP POP POP JUMP JUMPDEST PUSH0 DUP2 SWAP1 POP SWAP2 SWAP1 POP JUMP JUMPDEST PUSH0 PUSH2 0x455 PUSH2 0x450 PUSH2 0x44B DUP5 PUSH2 0x27E JUMP JUMPDEST PUSH2 0x432 JUMP JUMPDEST PUSH2 0x27E JUMP JUMPDEST SWAP1 POP SWAP2 SWAP1 POP JUMP JUMPDEST PUSH0 DUP2 SWAP1 POP SWAP2 SWAP1 POP JUMP JUMPDEST PUSH2 0x46E DUP4 PUSH2 0x43B JUMP JUMPDEST PUSH2 0x482 PUSH2 0x47A DUP3 PUSH2 0x45C JUMP JUMPDEST DUP5 DUP5 SLOAD PUSH2 0x3E1 JUMP JUMPDEST DUP3 SSTORE POP POP POP POP JUMP JUMPDEST PUSH0 SWAP1 JUMP JUMPDEST PUSH2 0x496 PUSH2 0x48A JUMP JUMPDEST PUSH2 0x4A1 DUP2 DUP5 DUP5 PUSH2 0x465 JUMP JUMPDEST POP POP POP JUMP JUMPDEST JUMPDEST DUP2 DUP2 LT ISZERO PUSH2 0x4C4 JUMPI PUSH2 0x4B9 PUSH0 DUP3 PUSH2 0x48E JUMP JUMPDEST PUSH1 0x1 DUP2 ADD SWAP1 POP PUSH2 0x4A7 JUMP JUMPDEST POP POP JUMP JUMPDEST PUSH1 0x1F DUP3 GT ISZERO PUSH2 0x509 JUMPI PUSH2 0x4DA DUP2 PUSH2 0x3B4 JUMP JUMPDEST PUSH2 0x4E3 DUP5 PUSH2 0x3C6 JUMP JUMPDEST DUP2 ADD PUSH1 0x20 DUP6 LT ISZERO PUSH2 0x4F2 JUMPI DUP2 SWAP1 POP JUMPDEST PUSH2 0x506 PUSH2 0x4FE DUP6 PUSH2 0x3C6 JUMP JUMPDEST DUP4 ADD DUP3 PUSH2 0x4A6 JUMP JUMPDEST POP POP JUMPDEST POP POP POP JUMP JUMPDEST PUSH0 DUP3 DUP3 SHR SWAP1 POP SWAP3 SWAP2 POP POP JUMP JUMPDEST PUSH0 PUSH2 0x529 PUSH0 NOT DUP5 PUSH1 0x8 MUL PUSH2 0x50E JUMP JUMPDEST NOT DUP1 DUP4 AND SWAP2 POP POP SWAP3 SWAP2 POP POP JUMP JUMPDEST PUSH0 PUSH2 0x541 DUP4 DUP4 PUSH2 0x51A JUMP JUMPDEST SWAP2 POP DUP3 PUSH1 0x2 MUL DUP3 OR SWAP1 POP SWAP3 SWAP2 POP POP JUMP JUMPDEST PUSH2 0x55A DUP3 PUSH2 0x34D JUMP JUMPDEST PUSH8 0xFFFFFFFFFFFFFFFF DUP2 GT ISZERO PUSH2 0x573 JUMPI PUSH2 0x572 PUSH2 0x124 JUMP JUMPDEST JUMPDEST PUSH2 0x57D DUP3 SLOAD PUSH2 0x384 JUMP JUMPDEST PUSH2 0x588 DUP3 DUP3 DUP6 PUSH2 0x4C8 JUMP JUMPDEST PUSH0 PUSH1 0x20 SWAP1 POP PUSH1 0x1F DUP4 GT PUSH1 0x1 DUP2 EQ PUSH2 0x5B9 JUMPI PUSH0 DUP5 ISZERO PUSH2 0x5A7 JUMPI DUP3 DUP8 ADD MLOAD SWAP1 POP JUMPDEST PUSH2 0x5B1 DUP6 DUP3 PUSH2 0x536 JUMP JUMPDEST DUP7 SSTORE POP PUSH2 0x618 JUMP JUMPDEST PUSH1 0x1F NOT DUP5 AND PUSH2 0x5C7 DUP7 PUSH2 0x3B4 JUMP JUMPDEST PUSH0 JUMPDEST DUP3 DUP2 LT ISZERO PUSH2 0x5EE JUMPI DUP5 DUP10 ADD MLOAD DUP3 SSTORE PUSH1 0x1 DUP3 ADD SWAP2 POP PUSH1 0x20 DUP6 ADD SWAP5 POP PUSH1 0x20 DUP2 ADD SWAP1 POP PUSH2 0x5C9 JUMP JUMPDEST DUP7 DUP4 LT ISZERO PUSH2 0x60B JUMPI DUP5 DUP10 ADD MLOAD PUSH2 0x607 PUSH1 0x1F DUP10 AND DUP3 PUSH2 0x51A JUMP JUMPDEST DUP4 SSTORE POP JUMPDEST PUSH1 0x1 PUSH1 0x2 DUP9 MUL ADD DUP9 SSTORE POP POP POP JUMPDEST POP POP POP POP POP POP JUMP JUMPDEST PUSH0 PUSH20 0xFFFFFFFFFFFFFFFFFFFFFFFFFFFFFFFFFFFFFFFF DUP3 AND SWAP1 POP SWAP2 SWAP1 POP JUMP JUMPDEST PUSH0 PUSH2 0x649 DUP3 PUSH2 0x620 JUMP JUMPDEST SWAP1 POP SWAP2 SWAP1 POP JUMP JUMPDEST PUSH2 0x659 DUP2 PUSH2 0x63F JUMP JUMPDEST DUP3 MSTORE POP POP JUMP JUMPDEST PUSH2 0x668 DUP2 PUSH2 0x27E JUMP JUMPDEST DUP3 MSTORE POP POP JUMP JUMPDEST PUSH0 PUSH1 0x60 DUP3 ADD SWAP1 POP PUSH2 0x681 PUSH0 DUP4 ADD DUP7 PUSH2 0x650 JUMP JUMPDEST PUSH2 0x68E PUSH1 0x20 DUP4 ADD DUP6 PUSH2 0x650 JUMP JUMPDEST PUSH2 0x69B PUSH1 0x40 DUP4 ADD DUP5 PUSH2 0x65F JUMP JUMPDEST SWAP5 SWAP4 POP POP POP POP JUMP JUMPDEST PUSH2 0xD28 DUP1 PUSH2 0x6B0 PUSH0 CODECOPY PUSH0 RETURN INVALID PUSH1 0x80 PUSH1 0x40 MSTORE CALLVALUE DUP1 ISZERO PUSH2 0xF JUMPI PUSH0 DUP1 REVERT JUMPDEST POP PUSH1 0x4 CALLDATASIZE LT PUSH2 0x86 JUMPI PUSH0 CALLDATALOAD PUSH1 0xE0 SHR DUP1 PUSH4 0x27E235E3 GT PUSH2 0x59 JUMPI DUP1 PUSH4 0x27E235E3 EQ PUSH2 0xFE JUMPI DUP1 PUSH4 0x313CE567 EQ PUSH2 0x12E JUMPI DUP1 PUSH4 0x95D89B41 EQ PUSH2 0x14C JUMPI DUP1 PUSH4 0xA9059CBB EQ PUSH2 0x16A JUMPI PUSH2 0x86 JUMP JUMPDEST DUP1 PUSH4 0x6FDDE03 EQ PUSH2 0x8A JUMPI DUP1 PUSH4 0x95EA7B3 EQ PUSH2 0xA8 JUMPI DUP1 PUSH4 0x18160DDD EQ PUSH2 0xC4 JUMPI DUP1 PUSH4 0x23B872DD EQ PUSH2 0xE2 JUMPI JUMPDEST PUSH0 DUP1 REVERT JUMPDEST PUSH2 0x92 PUSH2 0x186 JUMP JUMPDEST PUSH1 0x40 MLOAD PUSH2 0x9F SWAP2 SWAP1 PUSH2 0x858 JUMP JUMPDEST PUSH1 0x40 MLOAD DUP1 SWAP2 SUB SWAP1 RETURN JUMPDEST PUSH2 0xC2 PUSH1 0x4 DUP1 CALLDATASIZE SUB DUP2 ADD SWAP1 PUSH2 0xBD SWAP2 SWAP1 PUSH2 0x909 JUMP JUMPDEST PUSH2 0x211 JUMP JUMPDEST STOP JUMPDEST PUSH2 0xCC PUSH2 0x33B JUMP JUMPDEST PUSH1 0x40 MLOAD PUSH2 0xD9 SWAP2 SWAP1 PUSH2 0x956 JUMP JUMPDEST PUSH1 0x40 MLOAD DUP1 SWAP2 SUB SWAP1 RETURN JUMPDEST PUSH2 0xFC PUSH1 0x4 DUP1 CALLDATASIZE SUB DUP2 ADD SWAP1 PUSH2 0xF7 SWAP2 SWAP1 PUSH2 0x96F JUMP JUMPDEST PUSH2 0x341 JUMP JUMPDEST STOP JUMPDEST PUSH2 0x118 PUSH1 0x4 DUP1 CALLDATASIZE SUB DUP2 ADD SWAP1 PUSH2 0x113 SWAP2 SWAP1 PUSH2 0x9BF JUMP JUMPDEST PUSH2 0x562 JUMP JUMPDEST PUSH1 0x40 MLOAD PUSH2 0x125 SWAP2 SWAP1 PUSH2 0x956 JUMP JUMPDEST PUSH1 0x40 MLOAD DUP1 SWAP2 SUB SWAP1 RETURN JUMPDEST PUSH2 0x136 PUSH2 0x577 JUMP JUMPDEST PUSH1 0x40 MLOAD PUSH2 0x143 SWAP2 SWAP1 PUSH2 0xA05 JUMP JUMPDEST PUSH1 0x40 MLOAD DUP1 SWAP2 SUB SWAP1 RETURN JUMPDEST PUSH2 0x154 PUSH2 0x589 JUMP JUMPDEST PUSH1 0x40 MLOAD PUSH2 0x161 SWAP2 SWAP1 PUSH2 0x858 JUMP JUMPDEST PUSH1 0x40 MLOAD DUP1 SWAP2 SUB SWAP1 RETURN JUMPDEST PUSH2 0x184 PUSH1 0x4 DUP1 CALLDATASIZE SUB DUP2 ADD SWAP1 PUSH2 0x17F SWAP2 SWAP1 PUSH2 0x909 JUMP JUMPDEST PUSH2 0x615 JUMP JUMPDEST STOP JUMPDEST PUSH0 DUP1 SLOAD PUSH2 0x192 SWAP1 PUSH2 0xA4B JUMP JUMPDEST DUP1 PUSH1 0x1F ADD PUSH1 0x20 DUP1 SWAP2 DIV MUL PUSH1 0x20 ADD PUSH1 0x40 MLOAD SWAP1 DUP2 ADD PUSH1 0x40 MSTORE DUP1 SWAP3 SWAP2 SWAP1 DUP2 DUP2 MSTORE PUSH1 0x20 ADD DUP3 DUP1 SLOAD PUSH2 0x1BE SWAP1 PUSH2 0xA4B JUMP JUMPDEST DUP1 ISZERO PUSH2 0x209 JUMPI DUP1 PUSH1 0x1F LT PUSH2 0x1E0 JUMPI PUSH2 0x100 DUP1 DUP4 SLOAD DIV MUL DUP4 MSTORE SWAP2 PUSH1 0x20 ADD SWAP2 PUSH2 0x209 JUMP JUMPDEST DUP3 ADD SWAP2 SWAP1 PUSH0 MSTORE PUSH1 0x20 PUSH0 KECCAK256 SWAP1 JUMPDEST DUP2 SLOAD DUP2 MSTORE SWAP1 PUSH1 0x1 ADD SWAP1 PUSH1 0x20 ADD DUP1 DUP4 GT PUSH2 0x1EC JUMPI DUP3 SWAP1 SUB PUSH1 0x1F AND DUP3 ADD SWAP2 JUMPDEST POP POP POP POP POP DUP2 JUMP JUMPDEST PUSH0 PUSH20 0xFFFFFFFFFFFFFFFFFFFFFFFFFFFFFFFFFFFFFFFF AND DUP3 PUSH20 0xFFFFFFFFFFFFFFFFFFFFFFFFFFFFFFFFFFFFFFFF AND SUB PUSH2 0x27F JUMPI PUSH1 0x40 MLOAD PUSH32 0x8C379A000000000000000000000000000000000000000000000000000000000 DUP2 MSTORE PUSH1 0x4 ADD PUSH2 0x276 SWAP1 PUSH2 0xAC5 JUMP JUMPDEST PUSH1 0x40 MLOAD DUP1 SWAP2 SUB SWAP1 REVERT JUMPDEST DUP1 PUSH1 0x5 PUSH0 CALLER PUSH20 0xFFFFFFFFFFFFFFFFFFFFFFFFFFFFFFFFFFFFFFFF AND PUSH20 0xFFFFFFFFFFFFFFFFFFFFFFFFFFFFFFFFFFFFFFFF AND DUP2 MSTORE PUSH1 0x20 ADD SWAP1 DUP2 MSTORE PUSH1 0x20 ADD PUSH0 KECCAK256 PUSH0 DUP5 PUSH20 0xFFFFFFFFFFFFFFFFFFFFFFFFFFFFFFFFFFFFFFFF AND PUSH20 0xFFFFFFFFFFFFFFFFFFFFFFFFFFFFFFFFFFFFFFFF AND DUP2 MSTORE PUSH1 0x20 ADD SWAP1 DUP2 MSTORE PUSH1 0x20 ADD PUSH0 KECCAK256 DUP2 SWAP1 SSTORE POP PUSH32 0x8C5BE1E5EBEC7D5BD14F71427D1E84F3DD0314C0F7B2291E5B200AC8C7C3B925 CALLER DUP4 DUP4 PUSH1 0x40 MLOAD PUSH2 0x32F SWAP4 SWAP3 SWAP2 SWAP1 PUSH2 0xAF2 JUMP JUMPDEST PUSH1 0x40 MLOAD DUP1 SWAP2 SUB SWAP1 LOG1 POP POP JUMP JUMPDEST PUSH1 0x3 SLOAD DUP2 JUMP JUMPDEST DUP1 PUSH1 0x5 PUSH0 DUP6 PUSH20 0xFFFFFFFFFFFFFFFFFFFFFFFFFFFFFFFFFFFFFFFF AND PUSH20 0xFFFFFFFFFFFFFFFFFFFFFFFFFFFFFFFFFFFFFFFF AND DUP2 MSTORE PUSH1 0x20 ADD SWAP1 DUP2 MSTORE PUSH1 0x20 ADD PUSH0 KECCAK256 PUSH0 CALLER PUSH20 0xFFFFFFFFFFFFFFFFFFFFFFFFFFFFFFFFFFFFFFFF AND PUSH20 0xFFFFFFFFFFFFFFFFFFFFFFFFFFFFFFFFFFFFFFFF AND DUP2 MSTORE PUSH1 0x20 ADD SWAP1 DUP2 MSTORE PUSH1 0x20 ADD PUSH0 KECCAK256 SLOAD LT ISZERO PUSH2 0x3FC JUMPI PUSH1 0x40 MLOAD PUSH32 0x8C379A000000000000000000000000000000000000000000000000000000000 DUP2 MSTORE PUSH1 0x4 ADD PUSH2 0x3F3 SWAP1 PUSH2 0xB71 JUMP JUMPDEST PUSH1 0x40 MLOAD DUP1 SWAP2 SUB SWAP1 REVERT JUMPDEST DUP1 PUSH1 0x4 PUSH0 DUP6 PUSH20 0xFFFFFFFFFFFFFFFFFFFFFFFFFFFFFFFFFFFFFFFF AND PUSH20 0xFFFFFFFFFFFFFFFFFFFFFFFFFFFFFFFFFFFFFFFF AND DUP2 MSTORE PUSH1 0x20 ADD SWAP1 DUP2 MSTORE PUSH1 0x20 ADD PUSH0 KECCAK256 SLOAD LT ISZERO PUSH2 0x47C JUMPI PUSH1 0x40 MLOAD PUSH32 0x8C379A000000000000000000000000000000000000000000000000000000000 DUP2 MSTORE PUSH1 0x4 ADD PUSH2 0x473 SWAP1 PUSH2 0xBD9 JUMP JUMPDEST PUSH1 0x40 MLOAD DUP1 SWAP2 SUB SWAP1 REVERT JUMPDEST DUP1 PUSH1 0x4 PUSH0 DUP6 PUSH20 0xFFFFFFFFFFFFFFFFFFFFFFFFFFFFFFFFFFFFFFFF AND PUSH20 0xFFFFFFFFFFFFFFFFFFFFFFFFFFFFFFFFFFFFFFFF AND DUP2 MSTORE PUSH1 0x20 ADD SWAP1 DUP2 MSTORE PUSH1 0x20 ADD PUSH0 KECCAK256 PUSH0 DUP3 DUP3 SLOAD PUSH2 0x4C8 SWAP2 SWAP1 PUSH2 0xC24 JUMP JUMPDEST SWAP3 POP POP DUP2 SWAP1 SSTORE POP DUP1 PUSH1 0x4 PUSH0 DUP5 PUSH20 0xFFFFFFFFFFFFFFFFFFFFFFFFFFFFFFFFFFFFFFFF AND PUSH20 0xFFFFFFFFFFFFFFFFFFFFFFFFFFFFFFFFFFFFFFFF AND DUP2 MSTORE PUSH1 0x20 ADD SWAP1 DUP2 MSTORE PUSH1 0x20 ADD PUSH0 KECCAK256 PUSH0 DUP3 DUP3 SLOAD PUSH2 0x51B SWAP2 SWAP1 PUSH2 0xC57 JUMP JUMPDEST SWAP3 POP POP DUP2 SWAP1 SSTORE POP PUSH32 0xDDF252AD1BE2C89B69C2B068FC378DAA952BA7F163C4A11628F55A4DF523B3EF DUP4 DUP4 DUP4 PUSH1 0x40 MLOAD PUSH2 0x555 SWAP4 SWAP3 SWAP2 SWAP1 PUSH2 0xAF2 JUMP JUMPDEST PUSH1 0x40 MLOAD DUP1 SWAP2 SUB SWAP1 LOG1 POP POP POP JUMP JUMPDEST PUSH1 0x4 PUSH1 0x20 MSTORE DUP1 PUSH0 MSTORE PUSH1 0x40 PUSH0 KECCAK256 PUSH0 SWAP2 POP SWAP1 POP SLOAD DUP2 JUMP JUMPDEST PUSH1 0x2 PUSH0 SWAP1 SLOAD SWAP1 PUSH2 0x100 EXP SWAP1 DIV PUSH1 0xFF AND DUP2 JUMP JUMPDEST PUSH1 0x1 DUP1 SLOAD PUSH2 0x596 SWAP1 PUSH2 0xA4B JUMP JUMPDEST DUP1 PUSH1 0x1F ADD PUSH1 0x20 DUP1 SWAP2 DIV MUL PUSH1 0x20 ADD PUSH1 0x40 MLOAD SWAP1 DUP2 ADD PUSH1 0x40 MSTORE DUP1 SWAP3 SWAP2 SWAP1 DUP2 DUP2 MSTORE PUSH1 0x20 ADD DUP3 DUP1 SLOAD PUSH2 0x5C2 SWAP1 PUSH2 0xA4B JUMP JUMPDEST DUP1 ISZERO PUSH2 0x60D JUMPI DUP1 PUSH1 0x1F LT PUSH2 0x5E4 JUMPI PUSH2 0x100 DUP1 DUP4 SLOAD DIV MUL DUP4 MSTORE SWAP2 PUSH1 0x20 ADD SWAP2 PUSH2 0x60D JUMP JUMPDEST DUP3 ADD SWAP2 SWAP1 PUSH0 MSTORE PUSH1 0x20 PUSH0 KECCAK256 SWAP1 JUMPDEST DUP2 SLOAD DUP2 MSTORE SWAP1 PUSH1 0x1 ADD SWAP1 PUSH1 0x20 ADD DUP1 DUP4 GT PUSH2 0x5F0 JUMPI DUP3 SWAP1 SUB PUSH1 0x1F AND DUP3 ADD SWAP2 JUMPDEST POP POP POP POP POP DUP2 JUMP JUMPDEST PUSH0 PUSH20 0xFFFFFFFFFFFFFFFFFFFFFFFFFFFFFFFFFFFFFFFF AND DUP3 PUSH20 0xFFFFFFFFFFFFFFFFFFFFFFFFFFFFFFFFFFFFFFFF AND SUB PUSH2 0x683 JUMPI PUSH1 0x40 MLOAD PUSH32 0x8C379A000000000000000000000000000000000000000000000000000000000 DUP2 MSTORE PUSH1 0x4 ADD PUSH2 0x67A SWAP1 PUSH2 0xCD4 JUMP JUMPDEST PUSH1 0x40 MLOAD DUP1 SWAP2 SUB SWAP1 REVERT JUMPDEST DUP1 PUSH1 0x4 PUSH0 CALLER PUSH20 0xFFFFFFFFFFFFFFFFFFFFFFFFFFFFFFFFFFFFFFFF AND PUSH20 0xFFFFFFFFFFFFFFFFFFFFFFFFFFFFFFFFFFFFFFFF AND DUP2 MSTORE PUSH1 0x20 ADD SWAP1 DUP2 MSTORE PUSH1 0x20 ADD PUSH0 KECCAK256 SLOAD LT ISZERO PUSH2 0x703 JUMPI PUSH1 0x40 MLOAD PUSH32 0x8C379A000000000000000000000000000000000000000000000000000000000 DUP2 MSTORE PUSH1 0x4 ADD PUSH2 0x6FA SWAP1 PUSH2 0xBD9 JUMP JUMPDEST PUSH1 0x40 MLOAD DUP1 SWAP2 SUB SWAP1 REVERT JUMPDEST DUP1 PUSH1 0x4 PUSH0 CALLER PUSH20 0xFFFFFFFFFFFFFFFFFFFFFFFFFFFFFFFFFFFFFFFF AND PUSH20 0xFFFFFFFFFFFFFFFFFFFFFFFFFFFFFFFFFFFFFFFF AND DUP2 MSTORE PUSH1 0x20 ADD SWAP1 DUP2 MSTORE PUSH1 0x20 ADD PUSH0 KECCAK256 PUSH0 DUP3 DUP3 SLOAD PUSH2 0x74F SWAP2 SWAP1 PUSH2 0xC24 JUMP JUMPDEST SWAP3 POP POP DUP2 SWAP1 SSTORE POP DUP1 PUSH1 0x4 PUSH0 DUP5 PUSH20 0xFFFFFFFFFFFFFFFFFFFFFFFFFFFFFFFFFFFFFFFF AND PUSH20 0xFFFFFFFFFFFFFFFFFFFFFFFFFFFFFFFFFFFFFFFF AND DUP2 MSTORE PUSH1 0x20 ADD SWAP1 DUP2 MSTORE PUSH1 0x20 ADD PUSH0 KECCAK256 PUSH0 DUP3 DUP3 SLOAD PUSH2 0x7A2 SWAP2 SWAP1 PUSH2 0xC57 JUMP JUMPDEST SWAP3 POP POP DUP2 SWAP1 SSTORE POP PUSH32 0xDDF252AD1BE2C89B69C2B068FC378DAA952BA7F163C4A11628F55A4DF523B3EF CALLER DUP4 DUP4 PUSH1 0x40 MLOAD PUSH2 0x7DC SWAP4 SWAP3 SWAP2 SWAP1 PUSH2 0xAF2 JUMP JUMPDEST PUSH1 0x40 MLOAD DUP1 SWAP2 SUB SWAP1 LOG1 POP POP JUMP JUMPDEST PUSH0 DUP2 MLOAD SWAP1 POP SWAP2 SWAP1 POP JUMP JUMPDEST PUSH0 DUP3 DUP3 MSTORE PUSH1 0x20 DUP3 ADD SWAP1 POP SWAP3 SWAP2 POP POP JUMP JUMPDEST DUP3 DUP2 DUP4 MCOPY PUSH0 DUP4 DUP4 ADD MSTORE POP POP POP JUMP JUMPDEST PUSH0 PUSH1 0x1F NOT PUSH1 0x1F DUP4 ADD AND SWAP1 POP SWAP2 SWAP1 POP JUMP JUMPDEST PUSH0 PUSH2 0x82A DUP3 PUSH2 0x7E8 JUMP JUMPDEST PUSH2 0x834 DUP2 DUP6 PUSH2 0x7F2 JUMP JUMPDEST SWAP4 POP PUSH2 0x844 DUP2 DUP6 PUSH1 0x20 DUP7 ADD PUSH2 0x802 JUMP JUMPDEST PUSH2 0x84D DUP2 PUSH2 0x810 JUMP JUMPDEST DUP5 ADD SWAP2 POP POP SWAP3 SWAP2 POP POP JUMP JUMPDEST PUSH0 PUSH1 0x20 DUP3 ADD SWAP1 POP DUP2 DUP2 SUB PUSH0 DUP4 ADD MSTORE PUSH2 0x870 DUP2 DUP5 PUSH2 0x820 JUMP JUMPDEST SWAP1 POP SWAP3 SWAP2 POP POP JUMP JUMPDEST PUSH0 DUP1 REVERT JUMPDEST PUSH0 PUSH20 0xFFFFFFFFFFFFFFFFFFFFFFFFFFFFFFFFFFFFFFFF DUP3 AND SWAP1 POP SWAP2 SWAP1 POP JUMP JUMPDEST PUSH0 PUSH2 0x8A5 DUP3 PUSH2 0x87C JUMP JUMPDEST SWAP1 POP SWAP2 SWAP1 POP JUMP JUMPDEST PUSH2 0x8B5 DUP2 PUSH2 0x89B JUMP JUMPDEST DUP2 EQ PUSH2 0x8BF JUMPI PUSH0 DUP1 REVERT JUMPDEST POP JUMP JUMPDEST PUSH0 DUP2 CALLDATALOAD SWAP1 POP PUSH2 0x8D0 DUP2 PUSH2 0x8AC JUMP JUMPDEST SWAP3 SWAP2 POP POP JUMP JUMPDEST PUSH0 DUP2 SWAP1 POP SWAP2 SWAP1 POP JUMP JUMPDEST PUSH2 0x8E8 DUP2 PUSH2 0x8D6 JUMP JUMPDEST DUP2 EQ PUSH2 0x8F2 JUMPI PUSH0 DUP1 REVERT JUMPDEST POP JUMP JUMPDEST PUSH0 DUP2 CALLDATALOAD SWAP1 POP PUSH2 0x903 DUP2 PUSH2 0x8DF JUMP JUMPDEST SWAP3 SWAP2 POP POP JUMP JUMPDEST PUSH0 DUP1 PUSH1 0x40 DUP4 DUP6 SUB SLT ISZERO PUSH2 0x91F JUMPI PUSH2 0x91E PUSH2 0x878 JUMP JUMPDEST JUMPDEST PUSH0 PUSH2 0x92C DUP6 DUP3 DUP7 ADD PUSH2 0x8C2 JUMP JUMPDEST SWAP3 POP POP PUSH1 0x20 PUSH2 0x93D DUP6 DUP3 DUP7 ADD PUSH2 0x8F5 JUMP JUMPDEST SWAP2 POP POP SWAP3 POP SWAP3 SWAP1 POP JUMP JUMPDEST PUSH2 0x950 DUP2 PUSH2 0x8D6 JUMP JUMPDEST DUP3 MSTORE POP POP JUMP JUMPDEST PUSH0 PUSH1 0x20 DUP3 ADD SWAP1 POP PUSH2 0x969 PUSH0 DUP4 ADD DUP5 PUSH2 0x947 JUMP JUMPDEST SWAP3 SWAP2 POP POP JUMP JUMPDEST PUSH0 DUP1 PUSH0 PUSH1 0x60 DUP5 DUP7 SUB SLT ISZERO PUSH2 0x986 JUMPI PUSH2 0x985 PUSH2 0x878 JUMP JUMPDEST JUMPDEST PUSH0 PUSH2 0x993 DUP7 DUP3 DUP8 ADD PUSH2 0x8C2 JUMP JUMPDEST SWAP4 POP POP PUSH1 0x20 PUSH2 0x9A4 DUP7 DUP3 DUP8 ADD PUSH2 0x8C2 JUMP JUMPDEST SWAP3 POP POP PUSH1 0x40 PUSH2 0x9B5 DUP7 DUP3 DUP8 ADD PUSH2 0x8F5 JUMP JUMPDEST SWAP2 POP POP SWAP3 POP SWAP3 POP SWAP3 JUMP JUMPDEST PUSH0 PUSH1 0x20 DUP3 DUP5 SUB SLT ISZERO PUSH2 0x9D4 JUMPI PUSH2 0x9D3 PUSH2 0x878 JUMP JUMPDEST JUMPDEST PUSH0 PUSH2 0x9E1 DUP5 DUP3 DUP6 ADD PUSH2 0x8C2 JUMP JUMPDEST SWAP2 POP POP SWAP3 SWAP2 POP POP JUMP JUMPDEST PUSH0 PUSH1 0xFF DUP3 AND SWAP1 POP SWAP2 SWAP1 POP JUMP JUMPDEST PUSH2 0x9FF DUP2 PUSH2 0x9EA JUMP JUMPDEST DUP3 MSTORE POP POP JUMP JUMPDEST PUSH0 PUSH1 0x20 DUP3 ADD SWAP1 POP PUSH2 0xA18 PUSH0 DUP4 ADD DUP5 PUSH2 0x9F6 JUMP JUMPDEST SWAP3 SWAP2 POP POP JUMP JUMPDEST PUSH32 0x4E487B7100000000000000000000000000000000000000000000000000000000 PUSH0 MSTORE PUSH1 0x22 PUSH1 0x4 MSTORE PUSH1 0x24 PUSH0 REVERT JUMPDEST PUSH0 PUSH1 0x2 DUP3 DIV SWAP1 POP PUSH1 0x1 DUP3 AND DUP1 PUSH2 0xA62 JUMPI PUSH1 0x7F DUP3 AND SWAP2 POP JUMPDEST PUSH1 0x20 DUP3 LT DUP2 SUB PUSH2 0xA75 JUMPI PUSH2 0xA74 PUSH2 0xA1E JUMP JUMPDEST JUMPDEST POP SWAP2 SWAP1 POP JUMP JUMPDEST PUSH32 0x77726F6E67207265636569766572000000000000000000000000000000000000 PUSH0 DUP3 ADD MSTORE POP JUMP JUMPDEST PUSH0 PUSH2 0xAAF PUSH1 0xE DUP4 PUSH2 0x7F2 JUMP JUMPDEST SWAP2 POP PUSH2 0xABA DUP3 PUSH2 0xA7B JUMP JUMPDEST PUSH1 0x20 DUP3 ADD SWAP1 POP SWAP2 SWAP1 POP JUMP JUMPDEST PUSH0 PUSH1 0x20 DUP3 ADD SWAP1 POP DUP2 DUP2 SUB PUSH0 DUP4 ADD MSTORE PUSH2 0xADC DUP2 PUSH2 0xAA3 JUMP JUMPDEST SWAP1 POP SWAP2 SWAP1 POP JUMP JUMPDEST PUSH2 0xAEC DUP2 PUSH2 0x89B JUMP JUMPDEST DUP3 MSTORE POP POP JUMP JUMPDEST PUSH0 PUSH1 0x60 DUP3 ADD SWAP1 POP PUSH2 0xB05 PUSH0 DUP4 ADD DUP7 PUSH2 0xAE3 JUMP JUMPDEST PUSH2 0xB12 PUSH1 0x20 DUP4 ADD DUP6 PUSH2 0xAE3 JUMP JUMPDEST PUSH2 0xB1F PUSH1 0x40 DUP4 ADD DUP5 PUSH2 0x947 JUMP JUMPDEST SWAP5 SWAP4 POP POP POP POP JUMP JUMPDEST PUSH32 0x6E6F206163636573730000000000000000000000000000000000000000000000 PUSH0 DUP3 ADD MSTORE POP JUMP JUMPDEST PUSH0 PUSH2 0xB5B PUSH1 0x9 DUP4 PUSH2 0x7F2 JUMP JUMPDEST SWAP2 POP PUSH2 0xB66 DUP3 PUSH2 0xB27 JUMP JUMPDEST PUSH1 0x20 DUP3 ADD SWAP1 POP SWAP2 SWAP1 POP JUMP JUMPDEST PUSH0 PUSH1 0x20 DUP3 ADD SWAP1 POP DUP2 DUP2 SUB PUSH0 DUP4 ADD MSTORE PUSH2 0xB88 DUP2 PUSH2 0xB4F JUMP JUMPDEST SWAP1 POP SWAP2 SWAP1 POP JUMP JUMPDEST PUSH32 0x62616C616E636520746F6F206C6F770000000000000000000000000000000000 PUSH0 DUP3 ADD MSTORE POP JUMP JUMPDEST PUSH0 PUSH2 0xBC3 PUSH1 0xF DUP4 PUSH2 0x7F2 JUMP JUMPDEST SWAP2 POP PUSH2 0xBCE DUP3 PUSH2 0xB8F JUMP JUMPDEST PUSH1 0x20 DUP3 ADD SWAP1 POP SWAP2 SWAP1 POP JUMP JUMPDEST PUSH0 PUSH1 0x20 DUP3 ADD SWAP1 POP DUP2 DUP2 SUB PUSH0 DUP4 ADD MSTORE PUSH2 0xBF0 DUP2 PUSH2 0xBB7 JUMP JUMPDEST SWAP1 POP SWAP2 SWAP1 POP JUMP JUMPDEST PUSH32 0x4E487B7100000000000000000000000000000000000000000000000000000000 PUSH0 MSTORE PUSH1 0x11 PUSH1 0x4 MSTORE PUSH1 0x24 PUSH0 REVERT JUMPDEST PUSH0 PUSH2 0xC2E DUP3 PUSH2 0x8D6 JUMP JUMPDEST SWAP2 POP PUSH2 0xC39 DUP4 PUSH2 0x8D6 JUMP JUMPDEST SWAP3 POP DUP3 DUP3 SUB SWAP1 POP DUP2 DUP2 GT ISZERO PUSH2 0xC51 JUMPI PUSH2 0xC50 PUSH2 0xBF7 JUMP JUMPDEST JUMPDEST SWAP3 SWAP2 POP POP JUMP JUMPDEST PUSH0 PUSH2 0xC61 DUP3 PUSH2 0x8D6 JUMP JUMPDEST SWAP2 POP PUSH2 0xC6C DUP4 PUSH2 0x8D6 JUMP JUMPDEST SWAP3 POP DUP3 DUP3 ADD SWAP1 POP DUP1 DUP3 GT ISZERO PUSH2 0xC84 JUMPI PUSH2 0xC83 PUSH2 0xBF7 JUMP JUMPDEST JUMPDEST SWAP3 SWAP2 POP POP JUMP JUMPDEST PUSH32 0x77726F6E67207265636576696572000000000000000000000000000000000000 PUSH0 DUP3 ADD MSTORE POP JUMP JUMPDEST PUSH0 PUSH2 0xCBE PUSH1 0xE DUP4 PUSH2 0x7F2 JUMP JUMPDEST SWAP2 POP PUSH2 0xCC9 DUP3 PUSH2 0xC8A JUMP JUMPDEST PUSH1 0x20 DUP3 ADD SWAP1 POP SWAP2 SWAP1 POP JUMP JUMPDEST PUSH0 PUSH1 0x20 DUP3 ADD SWAP1 POP DUP2 DUP2 SUB PUSH0 DUP4 ADD MSTORE PUSH2 0xCEB DUP2 PUSH2 0xCB2 JUMP JUMPDEST SWAP1 POP SWAP2 SWAP1 POP JUMP INVALID LOG2 PUSH5 0x6970667358 0x22 SLT KECCAK256 NUMBER 0xF8 SHL 0xA7 CREATE2 0xE8 SLOAD MUL PUSH23 0xA0B3C395ADD63C7CE50E3134431352B272AB1795882249 PUSH5 0x736F6C6343 STOP ADDMOD BYTE STOP CALLER "
				},
				"gasEstimates": {
					"creation": {
						"codeDepositCost": "673600",
						"executionCost": "infinite",
						"totalCost": "infinite"
					},
					"external": {
						"approve(address,uint256)": "infinite",
						"balances(address)": "2802",
						"decimals()": "2488",
						"name()": "infinite",
						"symbol()": "infinite",
						"totalSupply()": "2470",
						"transfer(address,uint256)": "infinite",
						"transferFrom(address,address,uint256)": "infinite"
					}
				},
				"methodIdentifiers": {
					"approve(address,uint256)": "095ea7b3",
					"balances(address)": "27e235e3",
					"decimals()": "313ce567",
					"name()": "06fdde03",
					"symbol()": "95d89b41",
					"totalSupply()": "18160ddd",
					"transfer(address,uint256)": "a9059cbb",
					"transferFrom(address,address,uint256)": "23b872dd"
				}
			},
			"storageLayout": {
				"storage": [
					{
						"astId": 3,
						"contract": "contracts/1_Storage.sol:ERC20",
						"label": "name",
						"offset": 0,
						"slot": "0",
						"type": "t_string_storage"
					},
					{
						"astId": 5,
						"contract": "contracts/1_Storage.sol:ERC20",
						"label": "symbol",
						"offset": 0,
						"slot": "1",
						"type": "t_string_storage"
					},
					{
						"astId": 7,
						"contract": "contracts/1_Storage.sol:ERC20",
						"label": "decimals",
						"offset": 0,
						"slot": "2",
						"type": "t_uint8"
					},
					{
						"astId": 9,
						"contract": "contracts/1_Storage.sol:ERC20",
						"label": "totalSupply",
						"offset": 0,
						"slot": "3",
						"type": "t_uint256"
					},
					{
						"astId": 13,
						"contract": "contracts/1_Storage.sol:ERC20",
						"label": "balances",
						"offset": 0,
						"slot": "4",
						"type": "t_mapping(t_address,t_uint256)"
					},
					{
						"astId": 19,
						"contract": "contracts/1_Storage.sol:ERC20",
						"label": "allownaces",
						"offset": 0,
						"slot": "5",
						"type": "t_mapping(t_address,t_mapping(t_address,t_uint256))"
					}
				],
				"types": {
					"t_address": {
						"encoding": "inplace",
						"label": "address",
						"numberOfBytes": "20"
					},
					"t_mapping(t_address,t_mapping(t_address,t_uint256))": {
						"encoding": "mapping",
						"key": "t_address",
						"label": "mapping(address => mapping(address => uint256))",
						"numberOfBytes": "32",
						"value": "t_mapping(t_address,t_uint256)"
					},
					"t_mapping(t_address,t_uint256)": {
						"encoding": "mapping",
						"key": "t_address",
						"label": "mapping(address => uint256)",
						"numberOfBytes": "32",
						"value": "t_uint256"
					},
					"t_string_storage": {
						"encoding": "bytes",
						"label": "string",
						"numberOfBytes": "32"
					},
					"t_uint256": {
						"encoding": "inplace",
						"label": "uint256",
						"numberOfBytes": "32"
					},
					"t_uint8": {
						"encoding": "inplace",
						"label": "uint8",
						"numberOfBytes": "1"
					}
				}
			},
			"userdoc": {
				"kind": "user",
				"methods": {},
				"version": 1
			}
		}
	}
}